:040000000AEF00F013
:10000800E1CF5DF0E2CF5EF06DED3AF012EED8F0A0
:1000180057EF38F0070EE126000EE222F80E526E76
:10002800FF0E536EF70EE3CF5BF0F80EE3CF5CF0F4
:10003800340E5B24D96E000E5C20DA6EDF505B6EE6
:100048005C6A52505B2653505C22FC0E5BC0E3FF97
:10005800FD0E5CC0E3FFFB0EE36AE32AF50EE3CF77
:1000680052F0F60EE3CF53F0060E5224D96E000E6E
:100078005320DA6E940EDE18D8B432D0F50EE3CFE2
:1000880052F0F60EE3CF53F0060E5224D96E000E4E
:100098005320DA6E950EDE18D8B422D0F50EE3CFD1
:1000A80052F0F60EE3CF53F0060E5224D96E000E2E
:1000B8005320DA6E960EDE18D8B412D0F50EE3CFC0
:1000C80052F0F60EE3CF53F0060E5224D96E000E0E
:1000D8005320DA6EC80EDE18D8B402D0FB0EE36ADD
:1000E800FB0EE3CF51F0FF0E51C0E3FFFF0EE350CC
:1000F800D8B4D0D3F50EE3CF52F0F60EE3CF53F0D9
:10010800060E5224D96E000E5320DA6E940EDE18B5
:10011800D8A444D1F70EE3CF52F0F80EE3CF53F052
:10012800350E5224D96E000E5320DA6EDECF52F00F
:10013800DDCF53F052C0E6FF53C0E6FF0A0EE66E6D
:10014800000EE66E82EC30F09A0E596E000E5A6E72
:100158005150595E52505A5AF50EE3CF52F0F60EEE
:10016800E3CF53F0070E5224D96E000E5320DA6EF7
:10017800DF505C6E5C50595C000E5A58D8B010D0F5
:10018800F70EE3CF52F0F80EE3CF53F0DF0E522410
:10019800D96E000E5320DA6E000EDF6E000E58D2B4
:1001A800F50EE3CF52F0F60EE3CF53F0040E5224CF
:1001B800D96E000E5320DA6EF70EE3CF52F0F80E28
:1001C800E3CF53F0DC0E5224E96E000E5320EA6EA2
:1001D800DE50EE181FE1DE50EE18D8A41BD0F50E45
:1001E800E3CFD9FFF60EE3CFDAFFF70EE3CF52F0F5
:1001F800F80EE3CF53F0D80E5224E96E000E5320C8
:10020800EA6EDE50EE1806E1DE50EE18D8A402D0F1
:10021800010E1ED2F50EE3CF52F0F60EE3CF53F0E7
:10022800070E5224D96E000E5320DA6EDF50180DD7
:10023800F70EE3CF52F0F80EE3CF53F0D60E522468
:10024800D96E000E5320DA6EDECF52F0DDCF53F0B8
:10025800F70EE3CF5BF0F80EE3CF5CF052505B5E35
:1002680053505C5ACC0E5B26000E5C22F3505B5C4C
:100278005C50800A516EF450800A5158D8B024D08E
:10028800F70EE3CF52F0F80EE3CF53F02A0E5224C4
:10029800D96E000E5320DA6E000EDB80F70EE3CF26
:1002A80052F0F80EE3CF53F02F0E5224D96E000E01
:1002B8005320DA6EDECF52F0DDCF53F052C0E6FFA6
:1002C80053C0E6FF92EC2FF0080EE66E000EE66EC5
:1002D800F50EE3CF5BF0F60EE3CF5CF0070E5B2480
:1002E800526E000E5C20536E52C0E6FF53C0E6FF0C
:1002F800200EE66EF20EE350D80F526EF30EE3CFE7
:1003080053F0000E532252C0E6FF53C0E6FF19EC2B
:100318002FF0FC0EE3CFE6FFE3CFE6FFF50EE3CFC9
:100328005BF0F60EE3CF5CF00F0E5B24526E000E0E
:100338005C20536E52C0E6FF53C0E6FF200EE66E07
:10034800F20EE3CF52F0F30EE3CF53F0E20E522455
:10035800D96E000E5320DA6EDECF52F0DDCF53F0A7
:1003680052C0E6FF53C0E6FF19EC2FF0E150FC0F36
:10037800D96EE250DA6EFF0EDA22F70EE3CF52F0B2
:10038800F80EE3CF53F0E00E5224E96E000E53202E
:10039800EA6EDECFEEFFDDCFEDFF13D1F50EE3CF32
:1003A80052F0F60EE3CF53F0060E5224D96E000E2B
:1003B8005320DA6E960EDE18D8B420D0F50EE3CFAF
:1003C80052F0F60EE3CF53F0060E5224D96E000E0B
:1003D8005320DA6E950EDE18D8B410D0F50EE3CFA0
:1003E80052F0F60EE3CF53F0060E5224D96E000EEB
:1003F8005320DA6EC80EDE18D8A4B2D2FC0EE3CFB2
:1004080052F0FD0EE3CF53F0F70EE3CF5BF0F80E9A
:10041800E3CF5CF0E00E5B24D96E000E5C20DA6E50
:10042800DECF5BF0DDCF5CF052505B2653505C2290
:100438005C5003E1910E5B5CD8B0A2D6F70EE3CF17
:1004480052F0F80EE3CF53F0DF0E5224D96E000EAF
:100458005320DA6EDF50D8B4A1D6F50EE3CF52F0B0
:10046800F60EE3CF53F0060E5224D96E000E532039
:10047800DA6E960EDE18D8B41CD0F70EE3CF52F021
:10048800F80EE3CF53F0DF0E5224D96E000E53203E
:10049800DA6EF50EE3CF52F0F60EE3CF53F0070E07
:1004A8005224E96E000E5320EA6EDE50EE18D8A4EE
:1004B80075D6F50EE3CF52F0F60EE3CF53F0040EE7
:1004C8005224D96E000E5320DA6EF70EE3CF52F0A5
:1004D800F80EE3CF53F0DC0E5224E96E000E5320E1
:1004E800EA6EDE50EE1805E1DE50EE18D8A456D6B6
:1004F80001D054D6FC0EE3CFE6FFE3CFE6FFF50EBE
:10050800E3CF5BF0F60EE3CF5CF00F0E5B24526E88
:10051800000E5C20536E52C0E6FF53C0E6FF200E6B
:10052800E66EF20EE3CF52F0F30EE3CF53F0E00E97
:100538005224D96E000E5320DA6EDECF52F0DDCF92
:1005480053F0F20EE3CF5BF0F30EE3CF5CF0E20E74
:100558005B24D96E000E5C20DA6EDECF5BF0DDCF57
:100568005CF052505B2653505C225BC0E6FF5CC0D7
:10057800E6FF19EC2FF0FC0EE3CF52F0FD0EE3CFAF
:1005880053F0F70EE3CF5BF0F80EE3CF5CF0E00E2C
:100598005B24D96E000E5C20DA6E5250DE26535072
:1005A800DD22F50EE3CF52F0F60EE3CF53F0060E40
:1005B8005224D96E000E5320DA6E960EDE18D8B487
:1005C8000ED0F70EE3CF52F0F80EE3CF53F0DF0E64
:1005D8005224D96E000E5320DA6EDF0619D6F70EB4
:1005E800E3CF52F0F80EE3CF53F0DF0E5224D96E6A
:1005F800000E5320DA6E000EDF6EF50EE3CF52F0D8
:10060800F60EE3CF53F0070E5224D96E000E532096
:10061800DA6EF70EE3CF52F0F80EE3CF53F0DE0EAA
:100628005224E96E000E5320EA6EDFCFEFFFF70E7B
:10063800E3CF52F0F80EE3CF53F0DE0E5224D96E1A
:10064800000E5320DA6E830EDE18D8A403D0020EF3
:10065800516E87D2F70EE3CF52F0F80EE3CF53F086
:10066800E00E5224D96E000E5320DA6EF70EE3CF57
:1006780052F0F80EE3CF53F0D60E5224E96E000E76
:100688005320EA6EEECF52F0EDCF53F0F70EE3CFE2
:100698005BF0F80EE3CF5CF052505B5E53505C5A4F
:1006A800CC0E5B26000E5C22DE505B5C5C50800A40
:1006B800516EDE50800A5158D8A0C7D00A0EE66E97
:1006C800000EE66EF50EE3CF5BF0F60EE3CF5CF0BE
:1006D800D80E5B24526E000E5C20536E52C0E6FFAB
:1006E80053C0E6FF200EE66EF20EE3CF52F0F30E93
:1006F800E3CF53F0D60E5224D96E000E5320DA6E93
:10070800DECF52F0DDCF53F052C0E6FF53C0E6FF14
:1007180019EC2FF0F70EE3CF52F0F80EE3CF53F0B9
:10072800E00E5224D96E000E5320DA6EDECF52F05E
:10073800DDCF53F052C0E6FF53C0E6FFF50EE3CF1E
:1007480052F0F60EE3CF53F0E20E5224D96E000EAB
:100758005320DA6EDECF52F0DDCF53F052C0E6FF01
:1007680053C0E6FF200EE66EF20EE3CF52F0F30E12
:10077800E3CF53F0D60E5224D96E000E5320DA6E12
:10078800DECF52F0DDCF53F00A0E5226000E532270
:1007980052C0E6FF53C0E6FF19EC2FF0F70EE3CF87
:1007A80052F0F80EE3CF53F0E00E5224D96E000E4B
:1007B8005320DA6EDECF52F0DDCF53F00A0E522608
:1007C800000E5322F70EE3CF5BF0F80EE3CF5CF098
:1007D800D60E5B24D96E000E5C20DA6E5250DE26EF
:1007E8005350DD22F70EE3CF52F0F80EE3CF53F06B
:1007F800E00E5224D96E000E5320DA6EDF505C6E84
:100808000A0E5C26030E5C16F90E5CC0E3FFF90EB7
:10081800E350D8B4FDD4040E526E000E536EF90E98
:10082800E350525E000E535AF70EE3CF5BF0F80E1A
:10083800E3CF5CF0D60E5B24D96E000E5C20DA6E36
:100848005250DE265350DD22E3D4F70EE3CF52F0A8
:10085800F80EE3CF53F02F0E5224D96E000E53201A
:10086800DA6EDECF52F0DDCF53F052C0E6FF53C050
:10087800E6FF92EC2FF0F70EE3CF52F0F80EE3CF3D
:1008880053F02A0E5224D96E000E5320DA6E000E51
:10089800DB8084D4F50EE3CF52F0F60EE3CF53F0AD
:1008A800060E5224D96E000E5320DA6E830EDE181F
:1008B800D8A456D0080EE66E000EE66EF50EE3CF0D
:1008C8005BF0F60EE3CF5CF0070E5B24526E000E71
:1008D8005C20536E52C0E6FF53C0E6FF200EE66E62
:1008E800F20EE350D80F526EF30EE3CF53F0000E22
:1008F800532252C0E6FF53C0E6FF19EC2FF0F70E63
:10090800E3500F0F526EF80EE3CF53F0000E532250
:10091800F70EE3CF5BF0F80EE3CF5CF0E20E5B245A
:10092800D96E000E5C20DA6E52C0DEFF53C0DDFFC8
:10093800E150FC0FD96EE250DA6EFF0EDA22F70EA4
:10094800E3CF52F0F80EE3CF53F0E00E5224E96EF5
:10095800000E5320EA6EDECFEEFFDDCFEDFF77D637
:10096800C40E526EFF0E536EF70EE3CF5BF0F80E17
:10097800E3CF5CF0F70EE3CF59F0F80EE3CF5AF06F
:10098800D60E5924D96E000E5A20DA6EDECF59F0F1
:10099800DDCF5AF05B50595E5C505A5AFC0EE3505A
:1009A8005926FD0EE3505A225250592653505A22C6
:1009B8005ABE06D05A5003E19B0E595CD8B0CCD031
:1009C800080EE66E000EE66EF50EE3CF5BF0F60E4F
:1009D800E3CF5CF0070E5B24526E000E5C20536E72
:1009E80052C0E6FF53C0E6FF200EE66EF20EE3CFDC
:1009F80052F0F30EE3CF53F0D60E5224D96E000E08
:100A08005320DA6EDECF52F0DDCF53F052C0E6FF4E
:100A180053C0E6FF19EC2FF0020EE66E000EE66EEC
:100A2800FA0EE124526EFF0EE220536E52C0E6FF2A
:100A380053C0E6FF200EE66EF20EE3CF52F0F30E3F
:100A4800E3CF53F0D60E5224D96E000E5320DA6E3F
:100A5800DECF52F0DDCF53F0080E5226000E53229F
:100A680052C0E6FF53C0E6FF19EC2FF0FC0EE3CFAF
:100A7800E6FFE3CFE6FFF50EE3CF5BF0F60EE3CF3C
:100A88005CF00F0E5B24526E000E5C20536E52C059
:100A9800E6FF53C0E6FF200EE66EF20EE3CF52F0FB
:100AA800F30EE3CF53F0D60E5224D96E000E532026
:100AB800DA6EDECF52F0DDCF53F00A0E5226000E6A
:100AC800532252C0E6FF53C0E6FF19EC2FF0FC0E8C
:100AD800E3500A0F526EFD0EE3CF53F0000E53227F
:100AE800F70EE3CF5BF0F80EE3CF5CF0D60E5B2495
:100AF800D96E000E5C20DA6E5250DE265350DD228D
:100B08000A0E5C6EFC0EE3505C245B6E030E5B16F3
:100B1800FA0E5BC0E3FFFA0EE350D8B419D0040E06
:100B2800526E000E536EFA0EE350525E000E535A88
:100B3800F70EE3CF5BF0F80EE3CF5CF0D60E5B2444
:100B4800D96E000E5C20DA6E5250DE265350DD223C
:100B5800FE0EE36AE32A02D0FE0EE36AFE0EE3CF3E
:100B680051F0F50EE126FF0EE2221200050EE126F5
:100B7800000EE222FE0EE36AF90EE3CF52F0FA0EFF
:100B8800E3CF53F02A0E5224D96E000E5320DA6EAA
:100B9800DFB28ED3F90EE3CF52F0FA0EE3CF53F063
:100BA8002A0E5224D96E000E5320DA6EDFB02AD0F6
:100BB800E60E526EFF0E536EF90EE3CF5BF0FA0E9F
:100BC800E3CF5CF0F90EE3CF59F0FA0EE3CF5AF019
:100BD800D60E5924D96E000E5A20DA6EDECF59F09F
:100BE800DDCF5AF05B50595E5C505A5A5250592624
:100BF80053505A225ABE5CD35A5004E19B0E595C9A
:100C0800D8A056D3F90EE3CFE6FFE3CFE6FFB7EC63
:100C180039F05150D8A40FD0F90EE3CF52F0FA0EA4
:100C2800E3CF53F02A0E5224D96E000E5320DA6E09
:100C3800FE0EDF163DD3000E37D2F90EE3CF52F089
:100C4800FA0EE3CF53F02F0E5224D96E000E532024
:100C5800DA6EDECF52F0DDCF53F052C0E6FF53C05C
:100C6800E6FFB0EC36F0F90EE3CF52F0FA0EE3CF20
:100C780053F0340E5224D96E000E5320DA6E51C050
:100C8800DFFF080EDF6007D00A0EE66E000EE66E84
:100C9800D7EC32F00DD3F90EE3CF52F0FA0EE3CFD2
:100CA80053F0340E5224D96E000E5320DA6EDF5002
:100CB800E66EF80EE350070F526EF90EE3CF53F0CD
:100CC800000E532252C0E6FF53C0E6FFF60EE3CFF4
:100CD80052F0F70EE3CF53F02F0E5224D96E000EC8
:100CE8005320DA6EDECF52F0DDCF53F052C0E6FF6C
:100CF80053C0E6FFFAEC39F0F90EE350070F526ED5
:100D0800FA0EE3CF53F0000E5322FD0E53C0E3FF5B
:100D1800FC0E52C0E3FFFC0EE3CF52F0FD0EE3CF12
:100D280053F0020E5224D96E000E5320DA6EDECF35
:100D380052F0DDCF53F052C0E6FF53C0E6FFF70E86
:100D4800E3CFE6FFE3CFE6FF78EC36F05150D8B4B6
:100D5800AFD2FC0EE3CF52F0FD0EE3CF53F0060EF8
:100D68005224D96E000E5320DA6EDF505C6EFE0EF0
:100D78005CC0E3FFF90EE3CF52F0FA0EE3CF53F075
:100D8800320E5224D96E000E5320DA6EFC0EE3CFD9
:100D980052F0FD0EE3CF53F0020E5224E96E000E1E
:100DA8005320EA6EDE50EE1803E1DE50EE18D8A4A8
:100DB8007DD1FC0EE3CF52F0FD0EE3CF53F0060ECB
:100DC8005224D96E000E5320DA6E820EDE18D8B483
:100DD8006FD2FC0EE3CF52F0FD0EE3CF53F0060EB8
:100DE8005224D96E000E5320DA6E800EDE18D8A475
:100DF80064D0F90EE3CF52F0FA0EE3CF53F0320E7F
:100E08005224D96E000E5320DA6E240EDE1804E147
:100E1800090EDE18D8B451D0FC0EE3CF52F0FD0E07
:100E2800E3CF53F0020E5224D96E000E5320DA6E2F
:100E3800240EDE6E090EDD6E020EE66EFB0EE3CFAB
:100E480052F0FC0EE3CF53F0020E5224D96E000E7E
:100E58005320DA6EDECF52F0DDCF53F052C0E6FFFA
:100E680053C0E6FFF60EE3CFE6FFE3CFE6FF55EC0F
:100E78000FF00A0EE66E000EE66ED7EC32F0020EA8
:100E8800E66EFB0EE3CF52F0FC0EE3CF53F0020EFA
:100E98005224D96E000E5320DA6EDECF52F0DDCF29
:100EA80053F052C0E6FF53C0E6FFF60EE3CFE6FF6D
:100EB800E3CFE6FF55EC0FF0FBD1FC0EE3CF52F089
:100EC800FD0EE3CF53F0060E5224D96E000E5320C8
:100ED800DA6EC30EDE18D8A454D0F90EE3CF52F060
:100EE800FA0EE3CF53F0320E5224D96E000E53207F
:100EF800DA6EDE50DE10D8B444D0F90EE3CF52F0EB
:100F0800FA0EE3CF53F0320E5224D96E000E53205E
:100F1800DA6EFC0EE3CFE9FFFD0EE3CFEAFFDECF8A
:100F2800EEFFDDCFEDFFFC0EE3CF52F0FD0EE3CF79
:100F380053F0020E5224D96E000E5320DA6E000EC2
:100F4800DE6E000EDD6E000EE66EFB0EE3CF52F095
:100F5800FC0EE3CF53F0020E5224D96E000E53203C
:100F6800DA6EDECF52F0DDCF53F052C0E6FF53C049
:100F7800E6FFF60EE3CFE6FFE3CFE6FF55EC0FF012
:100F880097D1F90EE3CF52F0FA0EE3CF53F0290EC2
:100F98005224D96E000E5320DA6EDF50D8B40FD029
:100FA800FC0EE3CF52F0FD0EE3CF53F0060E5224B1
:100FB800D96E000E5320DA6E800EDF6010D0FC0E62
:100FC800E3CF52F0FD0EE3CF53F0060E5224D96E54
:100FD800000E5320DA6EC10EDE18D8A454D0FC0ED1
:100FE800E3CF52F0FD0EE3CF53F0060E5224D96E34
:100FF800000E5320DA6E940EDE18D8B444D0FC0EDE
:10100800E3CF52F0FD0EE3CF53F0060E5224D96E13
:10101800000E5320DA6E950EDE18D8B434D0FC0ECC
:10102800E3CF52F0FD0EE3CF53F0060E5224D96EF3
:10103800000E5320DA6EC80EDE18D8B424D0FC0E89
:10104800E3CF52F0FD0EE3CF53F0060E5224D96ED3
:10105800000E5320DA6E830EDE18D8B414D0FC0EBE
:10106800E3CF52F0FD0EE3CF53F0060E5224D96EB3
:10107800000E5320DA6E960EDE18D8B404D0FE0E99
:10108800E3CF51F04ED1FC0EE3CFE6FFE3CFE6FF0E
:10109800F70EE3CFE6FFE3CFE6FF0EEC00F0020E1B
:1010A8005118D8A405D1830E516E3BD1FC0EE3CF65
:1010B80052F0FD0EE3CF53F0020E5224D96E000E0B
:1010C8005320DA6E400EDE18DE10D8A4D4D0FC0E01
:1010D800E3CF52F0FD0EE3CF53F0060E5224D96E43
:1010E800000E5320DA6EC20EDE18D8A47DD0F90E99
:1010F800E3CF52F0FA0EE3CF53F02A0E5224D96E02
:10110800000E5320DA6EDFB6D3D0F90EE3CF52F0DB
:10111800FA0EE3CF53F0320E5224D96E000E53204C
:10112800DA6E240EDE1804E1090EDE18D8B4C0D039
:10113800FC0EE3CFD9FFFD0EE3CFDAFFFC0EE3CFC1
:1011480052F0FD0EE3CF53F0020E5224E96E000E6A
:101158005320EA6EDECFEEFFDDCFEDFFF90EE3CFD1
:1011680052F0FA0EE3CF53F0320E5224D96E000E2D
:101178005320DA6EFC0EE3CFE9FFFD0EE3CFEAFF62
:10118800DECFEEFFDDCFEDFFF90EE3CF52F0FA0E22
:10119800E3CF53F0390E5224D96E000E5320DA6E85
:1011A800DF50E66E000EE66ED7EC32F0020EE66E09
:1011B800FB0EE3CF52F0FC0EE3CF53F0020E5224A5
:1011C800D96E000E5320DA6EDECF52F0DDCF53F029
:1011D80052C0E6FF53C0E6FFF60EE3CFE6FFE3CFCB
:1011E800E6FF55EC0FF064D0FC0EE3CFE6FFE3CF4B
:1011F800E6FFF70EE3CFE6FFE3CFE6FF0EEC00F0E5
:10120800FB0E51C0E3FFF90EE3CFD9FFFA0EE3CF8F
:10121800DAFFDF50D8B42BD0040EE66EF80EE3CF19
:1012280052F0F90EE3CF53F0310E5224D96E000E6E
:101238005320DA6EDF50E66EF70EE3CFE6FFE3CF1A
:10124800E6FF24EC38F0D89051365236D890513613
:101258005236D8905136523651C0E6FF52C0E6FF9A
:10126800F60EE3CFE6FFE3CFE6FF55EC0FF0FB0EFB
:10127800E3CF51F014D7010EE66EFB0EE3CF52F028
:10128800FC0EE3CF53F0020E5224D96E000E532009
:10129800DA6EDECF52F0DDCF53F052C0E6FF53C016
:1012A800E6FFF60EE3CFE6FFE3CFE6FF55EC0FF0DF
:1012B800F90EE3CF52F0FA0EE3CF53F02F0E52247B
:1012C800D96E000E5320DA6EDECF52F0DDCF53F028
:1012D80052C0E6FF53C0E6FF23EC39F05150D8B4B2
:1012E800CED6FF0EE124E66EFF0EE220E66EF70E84
:1012F800E3CF52F0F80EE3CF53F02F0E5224D96EFD
:10130800000E5320DA6EDECF52F0DDCF53F052C01C
:10131800E6FF53C0E6FFBDEC37F05150D8B4AFD666
:101328008CD4F90EE126FF0EE2221200090EE12606
:10133800000EE2220BD0F50EE3CFE6FFE3CFE6FF87
:10134800BAEC05F07F0E516401D02CD0F50EE3CF36
:1013580052F0F60EE3CF53F02B0E5224D96E000E46
:101368005320DA6EDECF59F0DECF5AF0DECF5BF0D5
:10137800DECF5CF051EC3BF05950515C556E5A5041
:101388005258566E5B505358576E5C505458586EAE
:1013980058BED1D758505710561004E1190E555C55
:1013A800D8A0C9D7C80EE66EC2EC34F0F50EE3CF6C
:1013B80052F0F60EE3CF53F0350E5224D96E000EDC
:1013C8005320DA6EEE0EE350DE5CEF0EE350DE588B
:1013D800D8A04BD0F50EE3CF52F0F60EE3CF53F082
:1013E800340E5224D96E000E5320DA6EEE0EE350FE
:1013F800080FDF6EEC0EE3CFE6FFE3CFE6FFEC0E5F
:10140800E3CFE6FFE3CFE6FFEC0EE3CFE6FFE3CF63
:10141800E6FFE3CFE6FFEC0EE3CFE6FFE3CFE6FF20
:10142800EC0EE3CFE6FFE3CFE6FF24EC28F05150C3
:10143800D8B402D0010E17D051EC3BF0F50EE3CF33
:101448005BF0F60EE3CF5CF02B0E5B24D96E000E3A
:101458005C20DA6E51C0DEFF52C0DEFF53C0DEFFF3
:1014680054C0DEFF000E516E47D2EF0EE350FAE192
:10147800EE0EE3CF51F0910E515ED8B0F3D7F50ED2
:10148800E3CF52F0F60EE3CF53F0350E5224D96E67
:10149800000E5320DA6EDECF52F0DDCF53F052C08B
:1014A800E6FF53C0E6FFEC0EE3CFE6FFE3CFE6FF2F
:1014B80082EC30F051C059F052C05AF0F50EE3CF2B
:1014C80052F0F60EE3CF53F0350E5224D96E000ECB
:1014D8005320DA6EDECF52F0DDCF53F052C0E6FF74
:1014E80053C0E6FFEC0EE3CFE6FFE3CFE6FFC2EC26
:1014F80031F051505210D8B402D0010E01D0000E74
:1015080059245C6EFB0E5CC0E3FFFD0EE36AF30E2C
:10151800E3CF52F0F40EE3CF53F0020E5224D96E0B
:10152800000E5320DA6E400EDE18DE10D8B424D038
:10153800F50EE3CF52F0F60EE3CF53F02A0E522405
:10154800D96E000E5320DA6E000EDB84F50EE3CF61
:1015580052F0F60EE3CF53F02F0E5224D96E000E40
:101568005320DA6EDECF52F0DDCF53F052C0E6FFE3
:1015780053C0E6FF92EC2FF0FF0EE36AF30EE3CFC1
:1015880052F0F40EE3CF53F0060E5224D96E000E3B
:101598005320DA6EDF505C6EFE0E5CC0E3FFFC0E7B
:1015A800E36A11D1F30EE3CF52F0F40EE3CF53F018
:1015B800070E5224D96E000E5320DA6EFB0EE3CFCD
:1015C800DFFFFB0EE304D8A41ED0F30EE3CF52F0E6
:1015D800F40EE3CF53F0060E5224D96E000E5320BA
:1015E800DA6E960EDF6EF30EE3CF52F0F40EE3CF11
:1015F80053F0070E5224D96E000E5320DA6EFE0EF9
:10160800E3CFDFFF20D0FD0EE350D8A40ED0F30EB9
:10161800E3CF52F0F40EE3CF53F0060E5224D96E06
:10162800000E5320DA6E940E0DD0F30EE3CF52F075
:10163800F40EE3CF53F0060E5224D96E000E532059
:10164800DA6E950EDF6EF50EE3CF52F0F60EE3CFAD
:1016580053F0350E5224D96E000E5320DA6EDECFC9
:1016680052F0DDCF53F052C0E6FF53C0E6FFFB0E49
:10167800E350E66E000EE66E77EC34F0F70E51C0DC
:10168800E3FFF80E52C0E3FFF50EE3CF52F0F60E7B
:10169800E3CF53F0350E5224D96E000E5320DA6E84
:1016A800EE0EE3CF52F0EF0EE3CF53F0F70EE35018
:1016B800525EF80EE350535ADE50525CDE505358D7
:1016C800D8A011D0F50EE3CF52F0F60EE3CF53F0C9
:1016D800350E5224D96E000E5320DA6EDECF52F04A
:1016E800DDCF53F00CD0EE0EE3CF52F0EF0EE3CF88
:1016F80053F0F70EE350525EF80EE350535AF90ECA
:1017080052C0E3FFFA0E53C0E3FFF50EE3CF52F0E9
:10171800F60EE3CF53F0340E5224D96E000E532048
:10172800DA6EF90EE350080FDF6EEC0EE3CFE6FF3A
:10173800E3CFE6FFF70EE3CFE6FFE3CFE6FFF30ED6
:10174800E3CF5BF0F40EE3CF5CF0EC0EE3505B24E8
:10175800576EED0EE3505C20586E596AEE0EE3505A
:10176800592257C0E6FF58C0E6FF59C0E6FFEC0E05
:10177800E3CFE6FFE3CFE6FFEC0EE3CFE6FFE3CFF0
:10178800E6FF24EC28F0FC0E51C0E3FFFC0EE3500A
:10179800D8A408D0020EE66E000EE66ED7EC32F042
:1017A800FF0E05D0FF0EE36AFB0EE306FD0EE32AEB
:1017B800FC0EE350D8A407D0FF0EE3CF51F0020E81
:1017C800516401D004D0FB0EE350D8A4EBD6F30E3D
:1017D800E3CF52F0F40EE3CF53F0060E5224D96E45
:1017E800000E5320DA6EFE0EE3CFDFFFF50EE3CFD7
:1017F80052F0F60EE3CF53F02A0E5224D96E000EA3
:101808005320DA6EDFA45FD0000EE66EF40EE3CF4D
:1018180052F0F50EE3CF53F0010E5224D96E000EAC
:101828005320DA6EDECFE6FFDECFE6FFDECFE6FF3F
:10183800DECFE6FFF00EE3CF52F0F10EE3CF53F028
:101848002F0E5224D96E000E5320DA6EDECF52F0DE
:10185800DDCF53F052C0E6FF53C0E6FF71EC2CF029
:10186800FC0E51C0E3FFF50EE3CF52F0F60EE3CFC6
:1018780053F02F0E5224D96E000E5320DA6EDECFAD
:1018880052F0DDCF53F052C0E6FF53C0E6FF91ECB3
:101898002DF0000EE66E000EE66EF30EE3CF52F06A
:1018A800F40EE3CF53F02F0E5224D96E000E5320BE
:1018B800DA6EDECF52F0DDCF53F052C0E6FF53C0F0
:1018C800E6FF85EC33F0F50EE3CF52F0F60EE3CFEA
:1018D80053F02A0E5224D96E000E5320DA6EFB0EF6
:1018E800DF16FC0EE350D8B4BDD5FB0EE350D8B4D8
:1018F800A1D551EC3BF0A2D5EC0EE126FF0EE22279
:1019080012001A0EE126000EE222C20EE66E400E0A
:10191800E66E000EE66EE30EE124E66EFF0EE220B0
:10192800E66E54EC35F0E30EE350E66E000EE66E1C
:10193800000EE66E000EE66E000EE66E000EE66E17
:10194800E00EE124E66EFF0EE220E66EDC0EE3CF49
:1019580052F0DD0EE3CF53F0080E5224D96E000E7C
:101968005320DA6EDECF52F0DDCF53F052C0E6FFDF
:1019780053C0E6FFD9EC33F051EC3BF0F60E51C002
:10198800E3FFF70E52C0E3FFF80E53C0E3FFF90E72
:1019980054C0E3FFFC0EE36AE40EE3CF52F0E50E19
:1019A800E3CF53F0080E5224D96E000E5320DA6E9E
:1019B800DECF52F0DDCF53F052C0E6FF53C0E6FF52
:1019C800BAEC05F0C20E5118D8A435D0020EE66E56
:1019D800000EE66EE20EE3CF52F0E30EE3CF53F0D3
:1019E800080E5224D96E000E5320DA6EDECF5BF05B
:1019F800DDCF5CF0070E5B24526E000E5C20536E48
:101A080052C0E6FF53C0E6FF200EE66EF70EE35025
:101A1800020DE90EE124526EFF0EE220536EF350E0
:101A28005226F450532252C0E6FF53C0E6FF19EC89
:101A38002FF0FC0EE32A51EC3BF0F60EE350515E1A
:101A4800F70EE350525AF80EE350535AF90EE3508A
:101A5800545A54BE08D05450531052100AE1380E4C
:101A6800515CD8B006D0FC0EE3CF51F0030E5164A0
:101A780093D7FC0EE350D8A402D0000E0CD2FE0E71
:101A8800E36AFD0EE36AC7D0EC0EE124D96EFF0EBF
:101A9800E220DA6EC30EDF6EFF0EE66EFF0EE66E14
:101AA800E20EE3CFE6FFE3CFE6FFADEC13F0ED0E79
:101AB800E124D96EFF0EE220DA6E51C0DFFFFD0E81
:101AC800E350020DEE0EE124526EFF0EE220536E3B
:101AD800F3505224D96EF4505320DA6EE80EE12404
:101AE800E96EFF0EE220EA6EDECFEEFFDDCFEDFFFE
:101AF800FD0EE350020DEE0EE124526EFF0EE220C1
:101B0800536EF3505224D96EF4505320DA6EDECF60
:101B180052F0DDCF53F052C0E6FF53C0E6FF000E8F
:101B2800E66E000EE66E000EE66E000EE66E000E25
:101B3800E66EDF0EE124E66EFF0EE220E66EDB0EB7
:101B4800E3CF52F0DC0EE3CF53F0080E5224D96EE7
:101B5800000E5320DA6EDECF52F0DDCF53F052C0C4
:101B6800E6FF53C0E6FF9AEC09F051EC3BF0F60EA5
:101B780051C0E3FFF70E52C0E3FFF80E53C0E3FF76
:101B8800F90E54C0E3FF27D0E40EE3CF52F0E50E80
:101B9800E3CF53F0080E5224D96E000E5320DA6EAC
:101BA800DECF52F0DDCF53F052C0E6FF53C0E6FF60
:101BB800BAEC05F0FE0E51C0E3FFFE0EE3CF51F084
:101BC800800E5118D8A407D0FC0EE3CF51F0FD0EBB
:101BD80051C0E3FF18D051EC3BF0F60EE350515ED4
:101BE800F70EE350525AF80EE350535AF90EE350E9
:101BF800545A54BEC9D754505310521004E1E10E40
:101C0800515CD8A0C1D7050EE66E000EE66ED7EC83
:101C180032F0FD0EE32AE150FD0FD96EE250DA6E84
:101C2800FF0EDA22FC0EE350DE5CD8A02DD7FE0EA4
:101C3800E3CF51F0800E5118D8A41FD7FF0EE36AE6
:101C4800FA0EE36AFB0EE36A020EE66E000EE66E1B
:101C5800E20EE3CF52F0E30EE3CF53F0080E522426
:101C6800D96E000E5320DA6EDECF5BF0DDCF5CF06C
:101C78000F0E5B24526E000E5C20536E52C0E6FFBE
:101C880053C0E6FF200EE66EF50EE124E66EFF0E69
:101C9800E220E66E19EC2FF0FA0EE3CF51F0FB0EBE
:101CA800E3505110D8B4E9D6FF0EE66EFF0EE66E8B
:101CB800E20EE3CFE6FFE3CFE6FFADEC13F0E40E70
:101CC800E3CF5BF0E50EE3CF5CF0080E5B24D96E42
:101CD800000E5C20DA6E00EE0EF0DE50E926DD50D4
:101CE800EA22EF5051185210D8A4C7D6E150FA0F83
:101CF800D96EE250DA6EFF0EDA22E40EE3CF52F02C
:101D0800E50EE3CF53F0010E5224E96E000E532086
:101D1800EA6EDECFEEFFDDCFEDFFE40EE3CF52F04B
:101D2800E50EE3CF53F0060E5224D96E000E532071
:101D3800DA6EDECF52F0DDCF53F052C0E6FF53C06B
:101D4800E6FF92EC2FF00A0EE66E000EE66ED7EC78
:101D580032F0E40EE3CF52F0E50EE3CF53F0010E7C
:101D68005224D96E000E5320DA6EDECF52F0DDCF4A
:101D780053F052C0E6FF53C0E6FFE20EE3CF52F045
:101D8800E30EE3CF53F0080E5224D96E000E532011
:101D9800DA6EDECF52F0DDCF53F052C0E6FF53C00B
:101DA800E6FF96EC3AF0E80EE124D96EFF0EE22049
:101DB800DA6E000EDE6E000EDD6EEC0EE124D96EDA
:101DC800FF0EE220DA6E810EDF6E3BD0FF0EE3CF0E
:101DD8005CF05C2A5CC0E3FF5C06050E5C642BD0FB
:101DE800240EE66E090EE66EE20EE3CF52F0E30E25
:101DF800E3CF53F0080E5224D96E000E5320DA6E4A
:101E0800DECF52F0DDCF53F052C0E6FF53C0E6FFFD
:101E180096EC3AF0E40EE3CF52F0E50EE3CF53F040
:101E2800010E5224D96E000E5320DA6E240EDE6E97
:101E3800090EDD6E22D6030EE66E000EE66ED7ECB6
:101E480032F0000EE66E000EE66E000EE66E000E34
:101E5800E66E000EE66EE10EE124E66EFF0EE2206D
:101E6800E66EDD0EE3CF52F0DE0EE3CF53F0080E40
:101E78005224D96E000E5320DA6EDECF52F0DDCF39
:101E880053F052C0E6FF53C0E6FFD9EC39F0515089
:101E9800D8B49CD7010E516EE30EE126FF0EE22264
:101EA80012000C0EE126000EE222FF0EE36AF20E8B
:101EB800E3CF52F0F30EE3CF53F00D0E5224D96E58
:101EC800000E5320DA6E400EDF6412D0F20EE3CF1C
:101ED80052F0F30EE3CF53F00D0E5224D96E000EDC
:101EE8005320DA6EC00EDF6003D0FF0EE36AE32AE8
:101EF800F00EE3CFE6FFE3CFE6FFF00EE3CFE6FF19
:101F0800E3CFE6FF78EC36F05150D8A403D0000EAA
:101F1800516EF8D1F00EE3CF51F0F60E51C0E3FF49
:101F2800F10EE3CF51F0F70E51C0E3FFF80EE124B4
:101F3800D96EFF0EE220DA6EEF0EE3CFDFFFF90E67
:101F4800E124D96EFF0EE220DA6E000EDF6EF60E87
:101F5800E124E66EFF0EE220E66EF00EE3CFE6FF28
:101F6800E3CFE6FF86EC25F0F90EE124D96EFF0EEB
:101F7800E220DA6EDF50E66EF70EE124D96EFF0E2E
:101F8800E220DA6EDF50E66EF40EE3CFE6FFE3CF31
:101F9800E6FFEE0EE3CFE6FFE3CFE6FFF7EC1BF03C
:101FA800FE0E51C0E3FFEF0EE304D8A49ED0FE0E50
:101FB800E350D8B49AD0E150F60FD96EE250DA6EF9
:101FC800FF0EDA22F00EE350DE1804E1F10EE350C2
:101FD800DE18D8A48AD0FF0EE350D8B486D0F20E0B
:101FE800E350070F526EF30EE3CF53F0000E532267
:101FF800F50E53C0E3FFF40E52C0E3FFF40EE3CF37
:1020080052F0F50EE3CF53F0060E5224D96E000EAF
:102018005320DA6EC10EDF6EF40EE3CFD9FFF50E52
:10202800E3CFDAFFF40EE3CF52F0F50EE3CF53F02F
:10203800020E5224E96E000E5320EA6EDECFEEFF48
:10204800DDCFEDFFF40EE3CFE9FFF50EE3CFEAFFB6
:10205800F60EEECFE3FFF70EEDCFE3FFF80EE12427
:10206800D96EFF0EE220DA6E010EDF6EF90EE12462
:10207800D96EFF0EE220DA6E000EDF6EF60EE12456
:10208800E66EFF0EE220E66EF00EE3CFE6FFE3CF4A
:10209800E6FF86EC25F0F20EE3CF52F0F30EE3CF25
:1020A80053F0340E5224D96E000E5320DA6E080E07
:1020B800DF6EF90EE124D96EFF0EE220DA6EDF50F2
:1020C800E66EF70EE124D96EFF0EE220DA6EDF50DD
:1020D800E66EF40EE3CFE6FFE3CFE6FFEE0EE3CFC6
:1020E800E6FFE3CFE6FFF7EC1BF0FE0EE350D8B4B3
:1020F800E2D0E150F60FD96EE250DA6EFF0EDA2226
:10210800F00EE350DE1805E1F10EE350DE18D8B406
:10211800D2D0EF0EE350D8B407D0EF0EE3CF51F092
:10212800030E5118D8A4C7D0FF0EE350D8B4C3D0BB
:10213800F20EE3CF52F0F30EE3CF53F02A0E5224FF
:10214800D96E000E5320DA6EDFA454D0000EE66E6E
:10215800F10EE3CF52F0F20EE3CF53F0010E52240A
:10216800D96E000E5320DA6EDECFE6FFDECFE6FF33
:10217800DECFE6FFDECFE6FFED0EE3CF52F0EE0E48
:10218800E3CF53F02F0E5224D96E000E5320DA6E8F
:10219800DECF52F0DDCF53F052C0E6FF53C0E6FF6A
:1021A80071EC2CF0F20EE3CF52F0F30EE3CF53F0C4
:1021B8002A0E5224D96E000E5320DA6EFB0EDF165B
:1021C800000EE66E000EE66EF00EE3CF52F0F10E52
:1021D800E3CF53F02F0E5224D96E000E5320DA6E3F
:1021E800DECF52F0DDCF53F052C0E6FF53C0E6FF1A
:1021F80085EC33F0F20EE3CF52F0F30EE3CF53F059
:102208002F0E5224D96E000E5320DA6EDECF52F014
:10221800DDCF53F052C0E6FF53C0E6FF91EC2DF03E
:1022280051EC3BF0FA0E51C0E3FFFB0E52C0E3FF46
:10223800FC0E53C0E3FFFD0E54C0E3FF31D051EC58
:102248003BF0FA0EE350515EFB0EE350525AFC0E7F
:10225800E350535AFD0EE350545AF20EE3CF5BF0AD
:10226800F30EE3CF5CF0050E5B24D96E000E5C2004
:10227800DA6EDECF5BF0DDCF5CF05B50556E5C5004
:10228800566E576A586A5150555C525056585350BA
:10229800575854505858D8B003D0FE0EE36A0BD0A4
:1022A800F20EE3CFE6FFE3CFE6FFBAEC05F0C10E8E
:1022B8005118D8A4C4D7F20EE3CF52F0F30EE3CFEF
:1022C80053F02A0E5224D96E000E5320DA6EDFB472
:1022D80016D0F20EE3CF52F0F30EE3CF53F02F0EE9
:1022E8005224D96E000E5320DA6EDECF52F0DDCFC5
:1022F80053F052C0E6FF53C0E6FF91EC2DF0FE0EFE
:10230800E3CF51F0EF0EE126FF0EE22212000C0E91
:10231800E126000EE222F20EE3CF52F0F30EE3CFF5
:1023280053F0080E5224D96E000E5320DA6EDECF19
:1023380052F0DDCF53F052C0E6FF53C0E6FFBAECCF
:1023480005F0FF0E51C0E3FFF20EE3CF52F0F30E9B
:10235800E3CF53F0010E5224D96E000E5320DA6EEB
:10236800240EDE1804E1090EDE18D8B4EDD1FF0EF4
:10237800E3CF51F0C30E5118D8A40ED0F20EE3CF1C
:1023880052F0F30EE3CF53F00A0E5224D96E000E2A
:102398005320DA6E010EDF6EFF0EE66EFF0EE66E5C
:1023A800F00EE3CFE6FFE3CFE6FFADEC13F05150BC
:1023B8005210D8A4C9D1FF0EE3CF51F0C40E511862
:1023C800D8B407D0FF0EE3CF51F0C60E5118D8A4E9
:1023D800D3D0F20EE3CF52F0F30EE3CF53F0080E52
:1023E8005224D96E000E5320DA6EDECF52F0DDCFC4
:1023F80053F0070E5226000E5322FE0E53C0E3FF81
:10240800FD0E52C0E3FFFD0EE3CFD9FFFE0EE3CF72
:10241800DAFFFD0EE3CF52F0FE0EE3CF53F0020ECB
:102428005224E96E000E5320EA6EDECFEEFFDDCFB8
:10243800EDFFFF0EE3CF51F0C40E5118D8A44DD0D4
:10244800F20EE3CF52F0F30EE3CF53F0080E52240E
:10245800D96E000E5320DA6E00EE0FF0DE50E9263A
:10246800DD50EA22EF50E66EF10EE3CFE6FFE3CF50
:10247800E6FFFBEC17F0F60E51C0E3FFF70E52C073
:10248800E3FF020EE66E000EE66EF40EE124526ED5
:10249800FF0EE220536E52C0E6FF53C0E6FF200E47
:1024A800E66EF80EE3CFE6FFE3CFE6FFEB0EE3CFF1
:1024B80052F0EC0EE3CF53F0080E5224D96E000E02
:1024C8005320DA6EDECF52F0DDCF53F052C0E6FF74
:1024D80053C0E6FFD9EC39F037D1F20EE3CF52F012
:1024E800F30EE3CF53F0080E5224D96E000E53209A
:1024F800DA6E00EE0FF0DE50E926DD50EA22EF50EA
:10250800E66E000EE66EF00EE3CFE6FFE3CFE6FFE1
:10251800ADEC13F0F40E51C0E3FFF50E52C0E3FF2B
:10252800020EE66E000EE66EF20EE124526EFF0E0B
:10253800E220536E52C0E6FF53C0E6FF200EE66E5F
:10254800F80EE3CFE6FFE3CFE6FFEB0EE3CF52F062
:10255800EC0EE3CF53F0080E5224D96E000E532030
:10256800DA6EDECF52F0DDCF53F052C0E6FF53C033
:10257800E6FFD9EC39F0E8D0FF0EE3CF51F0C50EF5
:102588005118D8A47ED0F20EE3CF52F0F30EE3CF69
:1025980053F0080E5224D96E000E5320DA6EDECFA7
:1025A80052F0DDCF53F0070E5226000E5322FB0ED9
:1025B80053C0E3FFFA0E52C0E3FFFC0EE36A4DD0AE
:1025C800FA0EE3CFD9FFFB0EE3CFDAFFFC0EE350A0
:1025D800030DF20EE3CF52F0F30EE3CF53F0030EE8
:1025E8005224E96E000E5320EA6EEECF52F0EDCF82
:1025F80053F0F3505226F4505322010E5224E96E40
:10260800000E5320EA6EDE50EE1825E1DE50EE187B
:10261800D8A421D0FC0EE350030DF20EE3CF52F004
:10262800F30EE3CF53F0030E5224D96E000E53205D
:10263800DA6EDECF52F0DDCF53F0F3505226F4506D
:102648005322010E5224D96E000E5320DA6E000E6A
:10265800DE6E000EDD6EFC0EE32AF20EE3CF52F0C2
:10266800F30EE3CF53F0050E5224D96E000E53201B
:10267800DA6EFC0EE3CF51F0DE50515CD8B064D076
:102688009FD7FF0EE3CF51F0810E5118D8A45CD02C
:10269800F20EE3CF52F0F30EE3CF53F0080E5224BC
:1026A800D96E000E5320DA6EDECF52F0DDCF53F034
:1026B800070E5226000E5322F90E53C0E3FFF80E00
:1026C80052C0E3FFF20EE3CF52F0F30EE3CF53F024
:1026D800160E5224D96E000E5320DA6EF80EE3CF90
:1026E800E9FFF90EE3CFEAFFDE50EE182DE1DE50E8
:1026F800EE18D8A429D0F20EE3CF52F0F30EE3CFB0
:1027080053F0160E5224D96E000E5320DA6EDECF27
:1027180052F0DDCF53F052C0E6FF53C0E6FFF00E93
:10272800E3CF52F0F10EE3CF53F0140E5224D96EDA
:10273800000E5320DA6EDF50E66EEF0EE3CFE6FFB1
:10274800E3CFE6FF89EC24F0F20EE126FF0EE22249
:102758001200130EE126000EE222E90EE3280BE137
:10276800EA0EE328D8A407D0EB0EE3CFD9FFEC0E8E
:10277800E3CFDAFF5ED0E90EE3CF51F0EA0EE35083
:102788005110D8A404D0000E516E000E82D0EB0E6A
:10279800E3CF52F0EC0EE3CF53F0010E5224D96E82
:1027A800000E5320DA6EDE50DE10D8A45CD0FF0E87
:1027B800E36A45D0FF0EE350030DEB0EE3CF52F072
:1027C800EC0EE3CF53F0030E5224D96E000E5320C3
:1027D800DA6EDECF52F0DDCF53F0F3505226F450CC
:1027E8005322010E5224D96E000E5320DA6EE90EE0
:1027F800E350DE1822E1EA0EE350DE18D8A41DD01B
:10280800FF0EE350030DEB0EE3CF52F0EC0EE3CFD7
:1028180053F0030E5224D96E000E5320DA6EDECF29
:1028280052F0DDCF53F0F3505224D96EF4505320B8
:10283800DA6EDF50516E526AFAD0FF0EE32AEB0EC1
:10284800E3CF52F0EC0EE3CF53F0050E5224D96ECD
:10285800000E5320DA6EFF0EE3CF51F0DE50515CCC
:10286800D8B014D0A7D7EB0EE3CF52F0EC0EE3CFDD
:1028780053F0010E5224D96E000E5320DA6E240E46
:10288800DE1809E1090EDE18D8A405D0FF0E516E36
:10289800FF0E526ECCD0C60EE66E000EE66E000E2F
:1028A800E66EF40EE124E66EFF0EE220E66E54ECCE
:1028B80035F0020EE66E000EE66EE70EE124526E6B
:1028C800FF0EE220536E52C0E6FF53C0E6FF200E13
:1028D800E66EF20EE124E66EFF0EE220E66EE40EEE
:1028E800E3CF52F0E50EE3CF53F0080E5224D96E31
:1028F800000E5320DA6EDECF52F0DDCF53F052C017
:10290800E6FF53C0E6FFD9EC39F05150D8B4BED732
:1029180051EC3BF0F10E51C0E3FFF20E52C0E3FF61
:10292800F30E53C0E3FFF40E54C0E3FFF40E596EE8
:10293800010E5A6E000E5B6E000E5C6EED0E59C0F5
:10294800E3FFEE0E5AC0E3FFEF0E5BC0E3FFF00EAD
:102958005CC0E3FF24D051EC3BF0F10EE350515E34
:10296800F20EE350525AF30EE350535AF40EE3506A
:10297800545AED0EE3CF55F05150555CEE0EE3CFAF
:1029880055F052505558EF0EE3CF55F05350555867
:10299800F00EE3CF55F054505558D8A077D7EB0E2A
:1029A800E3CF52F0EC0EE3CF53F0080E5224D96E69
:1029B800000E5320DA6EDECF52F0DDCF53F052C056
:1029C800E6FF53C0E6FFBAEC05F0C60E5118D8A4CE
:1029D800C2D7020EE66E000EE66EE90EE3CF52F0A5
:1029E800EA0EE3CF53F0080E5224D96E000E53209E
:1029F800DA6EDECF5BF0DDCF5CF00F0E5B24526E3B
:102A0800000E5C20536E52C0E6FF53C0E6FF200E56
:102A1800E66EF00EE124E66EFF0EE220E66E19EC9B
:102A28002FF0F50EE3CF51F0F60EE3CF52F0E90E9A
:102A3800E126FF0EE2221200FCD0FE0EE3B002D027
:102A4800969601D0968663D1FE0EE3B002D092909E
:102A580001D092805CD1FE0EE3B002D0929201D0F8
:102A6800928255D1FE0EE3B002D0929401D09284A6
:102A78004ED1FE0EE3B002D0929601D0928647D195
:102A8800FE0EE3B002D0929801D0928840D1FE0E9B
:102A9800E3B002D0929A01D0928A39D1FE0EE3B007
:102AA80002D0969001D0968032D1FE0EE3B002D0CB
:102AB800969201D096822BD1FE0EE3B002D0969466
:102AC80001D0968424D1FE0EE3B002D0929E01D0AC
:102AD800928E1DD1FE0EE3B002D0929C01D0928C52
:102AE80016D1FE0EE3B002D0949001D094800FD19D
:102AF800FE0EE3B002D0949201D0948208D1FE0E6B
:102B0800E3B002D0949401D0948401D1FE0EE3B0D6
:102B180002D0949601D09486FAD0FE0EE3B002D08B
:102B2800959001D09580F3D0FE0EE3B002D0959237
:102B380001D09582ECD0FE0EE3B002D0959401D07E
:102B48009584E5D0FE0EE3B002D0959601D0958627
:102B5800DED0FE0EE3B002D0949801D09488D7D08E
:102B6800FE0EE3B002D0949A01D0948AD0D0FE0E23
:102B7800E3B002D0949C01D0948CC9D0FE0EE3B08F
:102B880002D0949E01D0948EC2D0FE0EE3B002D043
:102B9800959801D09588BBD0FE0EE3B002D0959AE7
:102BA80001D0958AB4D0FE0EE3B002D0959C01D036
:102BB800958CADD0FE0EE3B002D0959E01D0958ED7
:102BC800A6D0FE0EE3B002D0939001D093809FD0A0
:102BD800FE0EE3B002D0939201D0938298D0FE0EFD
:102BE800E3B002D0939401D0938491D0FE0EE3B069
:102BF80002D0939601D093868AD0FE0EE3B002D01D
:102C0800939801D0938883D0FE0EE3B002D0939AB4
:102C180001D0938A7CD0FE0EE3B002D0939C01D001
:102C2800938C75D0FE0EE3B002D0939E01D0938EA4
:102C38006ED0FF0EE350010AD8B4FFD6030AD8B409
:102C480003D7010AD8B407D7070AD8B40BD7010AA3
:102C5800D8B40FD7030AD8B413D7010AD8B417D7F2
:102C68000F0AD8B41BD7010AD8B41FD7030AD8B49F
:102C780023D7070AD8B427D7030AD8B42BD7010A11
:102C8800D8B42FD71F0AD8B433D7010AD8B437D746
:102C9800030AD8B43BD7010AD8B43FD7070AD8B437
:102CA80043D7010AD8B447D7030AD8B44BD7010A87
:102CB800D8B44FD70F0AD8B453D7010AD8B457D7C6
:102CC800030AD8B45BD7010AD8B45FD7070AD8B4C7
:102CD80063D7010AD8B467D7030AD8B46BD73F0AB9
:102CE800D8B46FD7030AD8B473D7010AD8B477D742
:102CF800070AD8B47BD7010AD8B47FD7030AD8B457
:102D080083D7010AD8B487D70F0AD8B48BD7E5522E
:102D1800E5521200070EE126000EE222F40EE3CF80
:102D2800E6FFE3CFE6FFF50EE3CFE6FFE3CFE6FFEE
:102D380078EC36F05150D8B455D1E150F40FD96E33
:102D4800E250DA6EFF0EDA22F70EE3CF52F0F80EF9
:102D5800E3CF53F0320E5224E96E000E5320EA6E90
:102D6800DECFEEFFDDCFEDFFF70EE3CF52F0F80E2A
:102D7800E3CF53F02F0E5224D96E000E5320DA6E93
:102D8800DECF52F0DDCF53F052C0E6FF53C0E6FF6E
:102D980023EC39F05150D8B425D1F60EE328D8B435
:102DA80019D0F60EE350E66EF60EE3CF52F0F70EAA
:102DB800E3CF53F02F0E5224D96E000E5320DA6E53
:102DC800DECF52F0DDCF53F052C0E6FF53C0E6FF2E
:102DD80086EC38F0000EE66E000EE66EF50EE3CFD8
:102DE80052F0F60EE3CF53F02F0E5224D96E000E98
:102DF8005320DA6EDECF52F0DDCF53F052C0E6FF3B
:102E080053C0E6FF85EC33F0F70EE3CF52F0F80E2F
:102E1800E3CF53F02F0E5224D96E000E5320DA6EF2
:102E2800DECF52F0DDCF53F052C0E6FF53C0E6FFCD
:102E380091EC35F0060EE66E000EE66EF50EE3CF69
:102E480052F0F60EE3CF53F0320E5224D96E000E34
:102E58005320DA6EDECF52F0DDCF53F052C0E6FFDA
:102E680053C0E6FFC2EC31F05150020DF3CF5CF0D5
:102E7800050E5C26FF0E5CC0E3FF050EE66EFE0E37
:102E8800E350E66EF50EE3CF52F0F60EE3CF53F0C3
:102E98002F0E5224D96E000E5320DA6EDECF52F078
:102EA800DDCF53F052C0E6FF53C0E6FF38EC3AF0EE
:102EB800F70EE3CF52F0F80EE3CF53F0010E522491
:102EC800D96E000E5320DA6E190EDE6E000EDE6E1D
:102ED800000EDE6E000EDD6E030EE66E000EE66E70
:102EE800F50EE3CF52F0F60EE3CF53F0010E522465
:102EF800D96E000E5320DA6EDECF52F0DDCF53F0DC
:102F080052C0E6FF53C0E6FF77EC34F0F70EE3CF8C
:102F18005BF0F80EE3CF5CF0050E5B24D96E000E73
:102F28005C20DA6E51C0DEFF52C0DDFFF70EE3CF42
:102F3800E6FFE3CFE6FF3BEC1EF0FE0EE36AE3821A
:102F4800E38434D0F90EE124E66EFF0EE220E66E4B
:102F5800FC0EE350E66EF10EE3CFE6FFE3CFE6FFAB
:102F6800F20EE3CFE6FFE3CFE6FF77EC26F0F90EAB
:102F7800E124E66EFF0EE220E66EFC0EE350E66EFC
:102F8800F40EE3CF52F0F50EE3CF53F02F0E522498
:102F9800D96E000E5320DA6EDECF52F0DDCF53F03B
:102FA80052C0E6FF53C0E6FF7DEC22F0FE0EE306BA
:102FB800FE0EE328D8A4C6D7F70EE3CF52F0F80EDA
:102FC800E3CF53F02F0E5224D96E000E5320DA6E41
:102FD800DECF52F0DDCF53F052C0E6FF53C0E6FF1C
:102FE80091EC2DF0F40EE126FF0EE2221200150EF0
:102FF800E126000EE222FF0EE66EFF0EE66EE70EF9
:10300800E3CFE6FFE3CFE6FFADEC13F051505210EB
:10301800D8A464D0F50EE36A4CD0F50EE350030D46
:10302800E90EE3CF52F0EA0EE3CF53F0030E522439
:10303800D96E000E5320DA6EDECF52F0DDCF53F09A
:10304800F3505224D96EF4505320DA6EE80EE35050
:10305800DE18D8A42CD0F50EE350030DE90EE3CF0B
:1030680052F0EA0EE3CF53F0030E5224D96E000E4D
:103078005320DA6EDECF52F0DDCF53F0F3505226F4
:10308800F4505322010E5224D96E000E5320DA6EEA
:10309800DECF52F0DDCF53F0F30E52C0E3FFF40E53
:1030A80053C0E3FFF30EE3CF51F0F40E05D1F50E54
:1030B800E32AE90EE3CF52F0EA0EE3CF53F0050E10
:1030C8005224D96E000E5320DA6EF50EE3CF51F07C
:1030D800DE50515CD8A0A1D7FF0EE6D0E90EE3CFB1
:1030E80052F0EA0EE3CF53F0010E5224D96E000ECF
:1030F8005320DA6E240EDE1804E1090EDE18D8B467
:10310800EBD7E80EE350D8A404D0000E516E000EA1
:10311800CDD0C40EE66E000EE66E000EE66EF30E1F
:10312800E124E66EFF0EE220E66E54EC35F0020E66
:10313800E66E000EE66EE60EE124526EFF0EE22009
:10314800536E52C0E6FF53C0E6FF200EE66EF10E46
:10315800E124E66EFF0EE220E66EE20EE3CF52F0C7
:10316800E30EE3CF53F0080E5224D96E000E53201D
:10317800DA6EDECF52F0DDCF53F052C0E6FF53C017
:10318800E6FFD9EC39F05150D8B4A6D751EC3BF052
:10319800EF0E51C0E3FFF00E52C0E3FFF10E53C033
:1031A800E3FFF20E54C0E3FF960E596E5A6A5B6A4B
:1031B8005C6AEB0E59C0E3FFEC0E5AC0E3FFED0E5C
:1031C8005BC0E3FFEE0E5CC0E3FF24D051EC3BF0A4
:1031D800EF0EE350515EF00EE350525AF10EE350F9
:1031E800535AF20EE350545AEB0EE3CF55F05150B8
:1031F800555CEC0EE3CF55F052505558ED0EE3CF29
:1032080055F053505558EE0EE3CF55F054505558DD
:10321800D8A062D7E90EE3CF52F0EA0EE3CF53F01D
:10322800080E5224D96E000E5320DA6EDECF52F00B
:10323800DDCF53F052C0E6FF53C0E6FFBAEC05F00D
:10324800C40E5118D8A4C2D7FE0EE36AFF0EE36A73
:10325800020EE66E000EE66EE70EE3CF52F0E80EC1
:10326800E3CF53F0080E5224D96E000E5320DA6EC5
:10327800DECF5BF0DDCF5CF00F0E5B24526E000EEC
:103288005C20536E52C0E6FF53C0E6FF200EE66E88
:10329800F90EE124E66EFF0EE220E66E19EC2FF03F
:1032A800FF0EE3AE05D0FE0E516EFF0E526E06D035
:1032B800FE0EE3CF51F0FF0EE3CF52F0E80EE12609
:1032C800FF0EE2221200F5D0FE0EE3B002D0899084
:1032D80001D0898059D1FE0EE3B002D0899201D085
:1032E800898252D1FE0EE3B002D0899401D089843C
:1032F8004BD1FE0EE3B002D0899601D0898644D125
:10330800FE0EE3B002D0899801D089883DD1FE0E27
:10331800E3B002D0899A01D0898A36D1FE0EE3B093
:1033280002D08D9001D08D802FD1FE0EE3B002D057
:103338008D9201D08D8228D1FE0EE3B002D08D94FB
:1033480001D08D8421D1FE0EE3B002D0899E01D038
:10335800898E1AD1FE0EE3B002D0899C01D0898CE7
:1033680013D1FE0EE3B002D08B9001D08B800CD12C
:10337800FE0EE3B002D08B9201D08B8205D1FE0EF7
:10338800E3B002D08B9401D08B84FED0FE0EE3B064
:1033980002D08B9601D08B86F7D0FE0EE3B002D018
:1033A8008C9001D08C80F0D0FE0EE3B002D08C92CD
:1033B80001D08C82E9D0FE0EE3B002D08C9401D00B
:1033C8008C84E2D0FE0EE3B002D08C9601D08C86BD
:1033D800DBD0FE0EE3B002D08B9801D08B88D4D01E
:1033E800FE0EE3B002D08B9A01D08B8ACDD0FE0EB0
:1033F800E3B002D08B9C01D08B8CC6D0FE0EE3B01C
:1034080002D08B9E01D08B8EBFD0FE0EE3B002D0CF
:103418008C9801D08C88B8D0FE0EE3B002D08C9A7C
:1034280001D08C8AB1D0FE0EE3B002D08C9C01D0C2
:103438008C8CAAD0FE0EE3B002D08C9E01D08C8E6C
:10344800A3D0FE0EE3B002D08A9001D08A809CD02F
:10345800FE0EE3B002D08A9201D08A8295D0FE0E89
:10346800E3B002D08A9401D08A848ED0FE0EE3B0F5
:1034780002D08A9601D08A8687D0FE0EE3B002D0A9
:103488008A9801D08A8880D0FE0EE3B002D08A9A4A
:1034980001D08A8A79D0FE0EE3B002D08A9C01D08E
:1034A8008A8C72D0FE0EE3B002D08A9E01D08A8E3A
:1034B8006BD0FF0EE350020AD8B406D7010AD8B47D
:1034C8000AD7070AD8B40ED7010AD8B412D7030A04
:1034D800D8B416D7010AD8B41AD70F0AD8B41ED749
:1034E800010AD8B422D7030AD8B426D7070AD8B411
:1034F8002AD7030AD8B42ED7010AD8B432D71F0A5C
:10350800D8B436D7010AD8B43AD7030AD8B43ED7C4
:10351800010AD8B442D7070AD8B446D7010AD8B4A2
:103528004AD7030AD8B44ED7010AD8B452D70F0ADB
:10353800D8B456D7010AD8B45AD7030AD8B45ED734
:10354800010AD8B462D7070AD8B466D7010AD8B432
:103558006AD7030AD8B46ED73F0AD8B472D7030A19
:10356800D8B476D7010AD8B47AD7070AD8B47ED7A0
:10357800010AD8B482D7030AD8B486D7010AD8B4C6
:103588008AD70F0AD8B48ED7E552E5521200060E34
:10359800E126000EE222F80EE3CF52F0F90EE3CF57
:1035A80053F0060E5224D96E000E5320DA6EDECF89
:1035B80052F0DDCF53F052C0E6FF53C0E6FFCCEC2B
:1035C8003AF05150D8B405D0000E516E000E526E2C
:1035D80005D1FF0EE36AFE0EE36AF80EE3CF52F060
:1035E800F90EE3CF53F0060E5224D96E000E532085
:1035F800DA6EDECF52F0DDCF53F052C0E6FF53C093
:10360800E6FF92EC2FF0F80EE3CF52F0F90EE3CF7D
:1036180053F0080E5224D96E000E5320DA6E00EED5
:103628002AF0DE50E926DD50EA22000EEB820A0E6F
:10363800E66E000EE66ED7EC32F0240EE66E090E4A
:10364800E66EF60EE3CF52F0F70EE3CF53F0080E16
:103658005224D96E000E5320DA6EDECF52F0DDCF41
:1036680053F052C0E6FF53C0E6FF96EC3AF0F80E6E
:10367800E3CF52F0F90EE3CF53F0010E5224D96E86
:10368800000E5320DA6E240EDE6E090EDD6E51EC4C
:103698003BF0FA0E51C0E3FFFB0E52C0E3FFFC0EF5
:1036A80053C0E3FFFD0E54C0E3FF67D051EC3BF07D
:1036B800FA0EE350515EFB0EE350525AFC0EE350F3
:1036C800535AFD0EE350545AF40EE3CF55F05150BF
:1036D800555CF50EE3CF55F052505558F60EE3CF32
:1036E80055F053505558F70EE3CF55F054505558F0
:1036F800D8A06AD7FF0EE350526E536A010E5226C5
:10370800000E532252C0E6FF53C0E6FFFC0EE35002
:10371800526E536A010E5226000E532252C0E6FF23
:1037280053C0E6FF77EC34F051C05BF052C05CF058
:10373800D8905B34526E5C34536E320E5226000EB3
:10374800532252C0E6FF53C0E6FFD7EC32F0FF0E1B
:10375800E32AFF0EE3CF51F0030E5116FF0E51C0BE
:10376800E3FFFE0EE32A0A0EE66EFD0EE350E66E58
:103778000DEC35F0FE0E51C0E3FFFF0EE350E66E90
:10378800F70EE3CFE6FFE3CFE6FF85EC0CF05150F0
:10379800D8B48CD7F80EE3CF52F0F90EE3CF53F03C
:1037A800080E5224D96E000E5320DA6E00EE2AF06D
:1037B800DE50E926DD50EA22FD0EEF16F80EE3CFC3
:1037C80052F0F90EE3CF53F0010E5224D96E000ED9
:1037D8005320DA6EDECF51F0DDCF52F0F40EE12641
:1037E800FF0EE2221200060EE126000EE222FA0E79
:1037F800E124E66EFF0EE220E66EF30EE350E66E7D
:10380800F30EE3CFE6FFE3CFE6FFF30EE3CFE6FFE9
:10381800E3CFE6FF77EC26F0F80EE3CF52F0F90E8F
:10382800E3CF53F02A0E5224D96E000E5320DA6EDD
:10383800DFB416D0F80EE3CF52F0F90EE3CF53F011
:103848002F0E5224D96E000E5320DA6EDECF52F0BE
:10385800DDCF53F052C0E6FF53C0E6FF92EC2FF0E5
:10386800F40EE350D8B41BD0000EE66E000EE66EE0
:10387800F60EE3CF52F0F70EE3CF53F02F0E52249B
:10388800D96E000E5320DA6EDECF52F0DDCF53F042
:1038980052C0E6FF53C0E6FF85EC33F01AD0010EA4
:1038A800E66E000EE66EF60EE3CF52F0F70EE3CFAB
:1038B80053F02F0E5224D96E000E5320DA6EDECF4D
:1038C80052F0DDCF53F052C0E6FF53C0E6FF85EC5F
:1038D80033F0FA0EE124E66EFF0EE220E66EF60EF5
:1038E800E3CF52F0F70EE3CF53F02F0E5224D96EE8
:1038F800000E5320DA6EDECF52F0DDCF53F052C007
:10390800E6FF53C0E6FF0BEC2DF0000EE66EF70E57
:10391800E3CF52F0F80EE3CF53F0340E5224D96EB1
:10392800000E5320DA6EDF50E66EF60EE3CF5BF042
:10393800F70EE3CF5CF0070E5B24526E000E5C209E
:10394800536E52C0E6FF53C0E6FFF40EE3CF52F0C9
:10395800F50EE3CF53F02F0E5224D96E000E5320EC
:10396800DA6EDECF52F0DDCF53F052C0E6FF53C01F
:10397800E6FFCCEC35F0FF0E51C0E3FFF80EE3CFC5
:1039880052F0F90EE3CF53F02A0E5224D96E000EEE
:103998005320DA6EDFB449D0000EE66EF70EE3CF9F
:1039A80052F0F80EE3CF53F0010E5224D96E000EF8
:1039B8005320DA6EDECFE6FFDECFE6FFDECFE6FF8E
:1039C800DECFE6FFF30EE3CF52F0F40EE3CF53F071
:1039D8002F0E5224D96E000E5320DA6EDECF52F02D
:1039E800DDCF53F052C0E6FF53C0E6FF71EC2CF078
:1039F800FF0E51C0E3FF000EE66E000EE66EF60EF7
:103A0800E3CF52F0F70EE3CF53F02F0E5224D96EC6
:103A1800000E5320DA6EDECF52F0DDCF53F052C0E5
:103A2800E6FF53C0E6FF85EC33F0FF0EE3CF51F01D
:103A3800F40EE126FF0EE2221200050EE126000E2A
:103A4800E222F50EE3CF59F0F60EE3CF5AF0F70E67
:103A5800E3CF5BF0F80EE3CF5CF0FB0E59C0E3FF59
:103A6800FC0E5AC0E3FFFD0E5BC0E3FFFE0E5CC018
:103A7800E3FFF30EE3CF5BF0F40EE3CF5CF05BC043
:103A880055F05CC056F0000E56BEFF0E576E586ECD
:103A980055C0E6FF56C0E6FF57C0E6FF58C0E6FF30
:103AA800F70EE3CFE6FFE3CFE6FFE3CFE6FFE3CF92
:103AB800E6FF98EC2EF0FB0E51C0E3FFFC0E52C05F
:103AC800E3FFFD0E53C0E3FFFE0E54C0E3FFF90E03
:103AD800E350010F516EF90E51C0E3FF516AFA0E1F
:103AE800E3505120516EFA0E51C0E3FFFB0EE35034
:103AF800C0E1FC0EE350BDE1FD0EE350BAE1FE0E5D
:103B0800E350D8A4B6D7F90EE3CFD9FFFA0EE3CF26
:103B1800DAFF000EDF6EF90EE3CF51F0010E515EB1
:103B2800F90E51C0E3FFFA0EE3CF51F0000E515ADF
:103B3800FA0E51C0E3FFF30EE3CF5BF0F40EE3CFD0
:103B48005CF05BC055F05CC056F0000E56BEFF0E30
:103B5800576E586E55C0E6FF56C0E6FF57C0E6FFE1
:103B680058C0E6FFF10EE3CFE6FFE3CFE6FFE3CF71
:103B7800E6FFE3CFE6FFF7EC30F051C05CF0FF0E54
:103B88005CC0E3FFF30EE3CF5BF0F40EE3CF5CF031
:103B98005BC055F05CC056F0000E56BEFF0E576E67
:103BA800586E55C0E6FF56C0E6FF57C0E6FF58C03E
:103BB800E6FFF10EE3CFE6FFE3CFE6FFE3CFE6FF54
:103BC800E3CFE6FF98EC2EF0F50E51C0E3FFF60EBA
:103BD80052C0E3FFF70E53C0E3FFF80E54C0E3FFF3
:103BE800FF0EE3CF51F0090E516408D0FF0EE3CF6A
:103BF80051F0070E5126FF0E51C0E3FFFF0EE3CF31
:103C080051F0300E5126FF0E51C0E3FFF90EE3CFFD
:103C1800D9FFFA0EE3CFDAFFFF0EE3CFDFFFF90E8D
:103C2800E3CF51F0010E515EF90E51C0E3FFFA0ED9
:103C3800E3CF51F0000E515AFA0E51C0E3FFF50ED2
:103C4800E35009E1F60EE35006E1F70EE35003E115
:103C5800F80EE350D8A46FD7F90EE3CF51F0FA0E5F
:103C6800E3CF52F0F30EE126FF0EE2221200090E16
:103C7800E126000EE222FF0E526EFF0E536EF70E83
:103C880052C0E3FFF80E53C0E3FFFF0EE36A12D001
:103C9800030E5C6EE150F70FD96EE250DA6EFF0E3C
:103CA800DA225C2803D0D890DE36DD36E82EFBD742
:103CB800FF0EE32AF70EE3CF52F0F80EE3CF53F0EE
:103CC800F50EE3CF5BF0F60EE3CF5CF0320E5B242B
:103CD800D96E000E5C20DA6EDECF5BF0DDCF5CF0D3
:103CE80052505B1653505C165B505C10D8A4D0D76A
:103CF800F50EE3CF52F0F60EE3CF53F0310E522417
:103D0800D96E000E5320DA6EFF0EE3CFDFFFF70EF9
:103D1800E3CF5BF0F80EE3CF5CF05B1C526E5C1CEB
:103D2800536EF50EE3CF5BF0F60EE3CF5CF03A0E80
:103D38005B24D96E000E5C20DA6E52C0DEFF53C0E1
:103D4800DDFFF50EE3CF52F0F60EE3CF53F03A0E57
:103D58005224D96E000E5320DA6EDECF52F0DDCF3A
:103D680053F0D89053325232D89053325232D890BE
:103D780053325232F90E52C0E3FFFA0E53C0E3FF3A
:103D8800F90EE3CF52F0FA0EE3CF53F0F50EE3CF7E
:103D98005BF0F60EE3CF5CF0320E5B24D96E000EBA
:103DA8005C20DA6EDECF5BF0DDCF5CF052505B1644
:103DB80053505C16F50EE3CF52F0F60EE3CF53F0F6
:103DC800370E5224D96E000E5320DA6E5BC0DEFF28
:103DD8005CC0DDFFF50EE3CF52F0F60EE3CF53F0F3
:103DE800320E5224D96E000E5320DA6EDECF52F016
:103DF800DDCF53F0FD0E52C0E3FFFE0E53C0E3FFCC
:103E0800F90EE3CF51F0FB0E51C0E3FFFA0EE3CFFA
:103E180051F0FC0E51C0E3FF22D0030E5C6EE1505E
:103E2800FD0FD96EE250DA6EFF0EDA225C2804D05C
:103E3800D92AD890DD32DF32E82EFAD7030E5C6E2D
:103E4800E150FB0FD96EE250DA6EFF0EDA225C28E1
:103E580004D0D92AD890DD32DF32E82EFAD7FB0E0B
:103E6800E3CF51F0FC0EE3505110D8A4D6D7F50E8D
:103E7800E3CF52F0F60EE3CF53F0390E5224D96E49
:103E8800000E5320DA6EFD0EE3CFDFFFF50EE126BC
:103E9800FF0EE2221200E652E652E652FE0EE36AF6
:103EA800FF0EE36AFB0EE3CFE6FFE3CFE6FFB7ECD6
:103EB80039F05150D8B4FAD0080EE66E000EE66E0E
:103EC800F90EE3CF5BF0FA0EE3CF5CF03C0E5B2417
:103ED800526E000E5C20536E52C0E6FF53C0E6FFE0
:103EE800200EE66EF40EE3CFE6FFE3CFE6FF19EC13
:103EF8002FF0020EE66E000EE66EF90EE3CF5BF0D1
:103F0800FA0EE3CF5CF0440E5B24526E000E5C2088
:103F1800536E52C0E6FF53C0E6FF200EE66EF90E60
:103F2800E124E66EFF0EE220E66E19EC2FF0F50EA6
:103F3800E3CF51F0F60EE3505110D8B43CD0FE0E4A
:103F4800E3CF52F0FF0EE3CF53F0F50EE3CF5BF073
:103F5800F60EE3CF5CF052505B5C53505C58D8A02F
:103F68000CD0FE0EE3CF51F0F50E51C0E3FFFF0E6B
:103F7800E3CF51F0F60E51C0E3FFF50EE3CFE6FFB5
:103F8800E3CFE6FFF90EE3CF5BF0FA0EE3CF5CF088
:103F9800460E5B24526E000E5C20536E52C0E6FF44
:103FA80053C0E6FF200EE66EF20EE3CFE6FFE3CF46
:103FB800E6FF19EC2FF0FE0EE3500A0F526EFF0ECB
:103FC800E3CF53F0000E5322FB0EE3CF5BF0FC0E61
:103FD800E3CF5CF0D60E5B24D96E000E5C20DA6E5F
:103FE8005250DE5E5350DD5A0A0E5C6EFE0EE350F0
:103FF8005C245B6E030E5B16FD0E5BC0E3FFFD0EDB
:10400800E350D8B41CD0FD0EE3CF5CF05C5004083C
:104018005C6EFD0E5CC0E3FFFD0EE350010DFB0E70
:10402800E3CF52F0FC0EE3CF53F0D60E5224D96EF4
:10403800000E5320DA6EF350DE5EF450DD5A9A0E0D
:10404800526E000E536EFE0EE350525EFF0EE350AA
:10405800535A52C0E6FF53C0E6FFFB0EE3505B6EB7
:104068005C6AF90EE3505B26FA0EE3505C22FC0E04
:10407800E3505B26FD0EE3505C22460E5B24526E35
:10408800000E5C20536E52C0E6FF53C0E6FFF70EE9
:10409800E3503C0F526EF80EE3CF53F0000E53225C
:1040A80052C0E6FF53C0E6FF8AEC23F0F50EE12686
:1040B800FF0EE2221200FE0EE3CF52F0FF0EE3CF16
:1040C80053F0060E5224D96E000E5320DA6EDECF5E
:1040D80052F0DDCF53F052C0E6FF53C0E6FF6EEC5E
:1040E80021F0FE0EE3CF52F0FF0EE3CF53F0130E94
:1040F8005224D96E000E5320DA6EFD0EE3CFDFFF97
:10410800FE0EE3CF52F0FF0EE3CF53F0130E52240E
:10411800D96E000E5320DA6EDF50E66EFD0EE3CF47
:1041280052F0FE0EE3CF53F0060E5224D96E000E65
:104138005320DA6EDECF52F0DDCF53F052C0E6FFE7
:1041480053C0E6FF86EC38F0FC0EE350E66EFD0E39
:10415800E3CF52F0FE0EE3CF53F0060E5224D96E91
:10416800000E5320DA6EDECF52F0DDCF53F052C08E
:10417800E6FF53C0E6FF16EC2EF0FE0EE3CF52F03A
:10418800FF0EE3CF53F0080E5224D96E000E5320D1
:10419800DA6E00EE29F0DE50E926DD50EA22010E43
:1041A800EF6EFF0EE66EFF0EE66EFC0EE3CFE6FF47
:1041B800E3CFE6FFADEC13F051505210D8B421D044
:1041C800FE0EE3CF52F0FF0EE3CF53F0010E522460
:1041D800D96E000E5320DA6E240EDE6E090EDD6EE7
:1041E800F80EE3CFE6FFE3CFE6FFE3CFE6FFE3CF4A
:1041F800E6FFFA0EE3CFE6FFE3CFE6FFCBEC1AF0DB
:1042080064D0060EE66E000EE66E07EC36F0FE0E83
:10421800E3CF5BF0FF0EE3CF5CF0030E5B24D96EB7
:10422800000E5C20DA6E000EDE6EDD6EFE0EE3CF51
:1042380052F0FF0EE3CF53F0050E5224D96E000E54
:104248005320DA6E000EDF6EFE0EE3CFE6FFE3CFFB
:10425800E6FF68EC3BF0FE0EE3CF52F0FF0EE3CF33
:1042680053F0010E5224D96E000E5320DA6E000E60
:10427800DE6E000EDD6EFE0EE3CF52F0FF0EE3CFD2
:1042880053F0010E5224D96E000E5320DA6EDECFA1
:1042980052F0DDCF53F052C0E6FF53C0E6FFFC0EEC
:1042A800E3CF52F0FD0EE3CF53F0080E5224D96E3F
:1042B800000E5320DA6EDECF52F0DDCF53F052C03D
:1042C800E6FF53C0E6FF96EC3AF0F80EE126FF0E43
:1042D800E2221200E652FD0EE3CF52F0FE0EE3CFCB
:1042E80053F0010E5224D96E000E5320DA6EFD0EE3
:1042F800E3CFE9FFFE0EE3CFEAFFDE50EE18D8B4B5
:104308000CD0000EE66EFC0EE3CFD9FFFD0EE3CF16
:10431800DAFFDF50E66E20EC15F0FD0EE3CF52F029
:10432800FE0EE3CF53F0010E5224D96E000E532037
:10433800DA6EFD0EE3CFE9FFFE0EE3CFEAFFDE50B3
:10434800EE18D8B412D0000EE66EFC0EE3CF52F091
:10435800FD0EE3CF53F0010E5224D96E000E532008
:10436800DA6EDF50E66E20EC15F0F5EC3AF0000E50
:10437800E66EFC0EE3CFE6FFE3CFE6FFD5EC38F0C0
:10438800010EE66EFC0EE3CFE6FFE3CFE6FFAEECF0
:1043980038F0050EE66E000EE66ED7EC32F00C0E25
:1043A800E66E000EE66EFB0EE3CFE6FFE3CFE6FF18
:1043B80049EC39F00F0EE66E050EE66EFB0EE3CF04
:1043C800E6FFE3CFE6FF38EC3AF0020EE66EFC0EAD
:1043D800E3CFE6FFE3CFE6FF16EC2EF05150D8B45A
:1043E8000ED0FD0EE3CF52F0FE0EE3CF53F0040ED5
:1043F8005224D96E000E5320DA6E010EDF6E060EBF
:10440800E66EFC0EE3CFE6FFE3CFE6FF93EC39F070
:10441800FF0E51C0E3FF000EE66EFC0EE3CFE6FF91
:10442800E3CFE6FF16EC2EF0FD0EE3CFE6FFE3CF79
:10443800E6FF54EC3AF0000EE66E1D0EE66EFB0E3B
:10444800E3CFE6FFE3CFE6FF49EC39F0000EE66E76
:104458001C0EE66EFB0EE3CFE6FFE3CFE6FF49EC6A
:1044680039F0700EE66E070EE66EFB0EE3CFE6FF40
:10447800E3CFE6FF49EC39F04C0EE66EFC0EE3CFD5
:10448800E6FFE3CFE6FF86EC38F0FD0EE3CFE6FF6C
:10449800E3CFE6FF02EC3BF0FD0EE3CFE6FFE3CF10
:1044A800E6FF32EC3BF0FD0EE3CFE6FFE3CFE6FF9D
:1044B800FCEC38F0000EE66EFC0EE3CFE6FFE3CF2F
:1044C800E6FF93EC39F05150FE0BE66E000EE66EF7
:1044D800FB0EE3CFE6FFE3CFE6FF49EC39F0FF0E32
:1044E800E350D8B402D0FF0EE328E552E552E55276
:1044F8001200060EE126000EE222FF0EE36AF50E18
:10450800E3CF52F0F60EE3CF53F0FF0EE350525EC6
:10451800000E535A040E5224D96E000E5320DA6E40
:10452800FF0EE3CF5CF0FA0EE124526EFF0EE2209C
:10453800536E5C505224E96E000E5320EA6EDFCFB2
:10454800EFFFFF0EE32AFF0EE3CF51F0040E516494
:10455800D6D7F70EE350D8A42BD0F80EE3CF52F0FD
:10456800F90EE3CF53F00C0E5224D96E000E5320EF
:10457800DA6EDF50E66E000EE66EF80EE124526E3B
:10458800FF0EE220536E52C0E6FF53C0E6FF200E36
:10459800E66EF30EE350070F526EF40EE3CF53F0BE
:1045A800000E532252C0E6FF53C0E6FF19EC2FF06D
:1045B800F70EE3CF51F0070E5160A3D0F70EE3CF0B
:1045C80051F0020E51602CD0F80EE3CF52F0F90EE4
:1045D800E3CF53F00C0E5224D96E000E5320DA6E3E
:1045E800DF50E66EF90EE124E66EFF0EE220E66E7D
:1045F800F40EE350526E536AB50E5224F66EFD0E59
:104608005320F76EF86A000EF8220800F550E66E9F
:10461800F40EE3CFE6FFE3CFE6FF40EC36F01FD021
:10462800010EE66EF90EE124E66EFF0EE220E66E5C
:10463800F40EE350526E536AB50E5224F66EFD0E18
:104648005320F76EF86A000EF8220800F550E66E5F
:10465800F40EE3CFE6FFE3CFE6FF40EC36F0F80ECA
:10466800E3CF52F0F90EE3CF53F0050E5224D96E82
:10467800000E5320DA6EDF50E66EF60EE350526EEF
:10468800536AAF0E5224F66EFD0E5320F76EF86A89
:10469800000EF8220800F550E66EF60EE3CFE6FFAE
:1046A800E3CFE6FF49EC39F0F70EE350526E536A58
:1046B800BB0E5224F66EFD0E5320F76EF86A000EFC
:1046C800F8220800F5CF5CF0010E5B6E5C2A02D080
:1046D800D8905B365C2EFCD7020EE66EF70EE3CF61
:1046E800E6FFE3CFE6FF93EC39F051505B10E66E3E
:1046F800020EE66EF60EE3CFE6FFE3CFE6FF49ECE7
:1047080039F0F50EE126FF0EE2221200E652E652DB
:10471800E652E652F80EE3CF52F0F90EE3CF53F02B
:10472800FD0E53C0E3FFFC0E52C0E3FFFA0EE3CFC9
:1047380052F0FB0EE3CF53F0FF0E53C0E3FFFE0E23
:1047480052C0E3FFE150FC0FD96EE250DA6EFF0E63
:10475800DA22FE0EE350DE5CFF0EE350DE58D8B0DE
:1047680083D0FC0EE3CF52F0FD0EE3CF53F0F60EEC
:10477800E3505226F70EE3505322FE0EE3CF51F0DA
:104788005250515CFF0EE3CF51F053505158D8B0FE
:104798006BD0FC0EE350516EF60EE3505126FC0E22
:1047A80051C0E3FFFD0EE350516EF70EE350512266
:1047B800FD0E51C0E3FFFE0EE350516EF60EE350BE
:1047C8005126FE0E51C0E3FFFF0EE350516EF70E67
:1047D800E3505122FF0E51C0E3FFFC0EE3CF51F02E
:1047E800010E515EFC0E51C0E3FFFD0EE3CF51F008
:1047F800000E515AFD0E51C0E3FFFC0EE3CFD9FF66
:10480800FD0EE3CFDAFFFE0EE3CF51F0010E515E4D
:10481800FE0E51C0E3FFFF0EE3CF51F0000E515AD8
:10482800FF0E51C0E3FFFE0EE3CFE9FFFF0EE3CF1B
:10483800EAFFDFCFEFFFF60EE3CF51F0010E515E36
:10484800F60E51C0E3FFF70EE3CF51F0000E515AB8
:10485800F70E51C0E3FFF60EE3CF51F0F70EE35029
:104868005110D8B44DD0B9D7F60EE3CF51F0F70EAA
:10487800E3505110D8B444D0FC0EE3CFD9FFFD0E5D
:10488800E3CFDAFFFE0EE3CFE9FFFF0EE3CFEAFF47
:10489800DFCFEFFFFC0EE350010F516EFC0E51C04D
:1048A800E3FF516AFD0EE3505120516EFD0E51C0D9
:1048B800E3FFFE0EE350010F516EFE0E51C0E3FF01
:1048C800516AFF0EE3505120516EFF0E51C0E3FFB5
:1048D800F60EE3CF51F0010E515EF60E51C0E3FF24
:1048E800F70EE3CF51F0000E515AF70E51C0E3FF17
:1048F800F60EE3CF51F0F70EE3505110D8A4BCD711
:10490800F60EE126FF0EE2221200E652E652FC0EF7
:10491800E3CF52F0FD0EE3CF53F0050E5224D96ECB
:10492800000E5320DA6EDF505C6EFF0E5CC0E3FFB2
:10493800FE0EE36A27D0FE0EE350030DFC0EE3CF14
:1049480052F0FD0EE3CF53F0030E5224D96E000E41
:104958005320DA6EDECF52F0DDCF53F0F3505224FD
:10496800D96EF4505320DA6EFB0EE350DE18D8A44B
:1049780007D0FE0EE3CF51F0FF0E51C0E3FF15D074
:10498800FE0EE32AFC0EE3CF52F0FD0EE3CF53F008
:10499800050E5224D96E000E5320DA6EFE0EE3CFB8
:1049A80051F0DE50515CD8A0C6D7FF0EE350030D7E
:1049B800FC0EE3CF52F0FD0EE3CF53F0030E52246A
:1049C800D96E000E5320DA6EDECF52F0DDCF53F0F1
:1049D800F3505224D96EF4505320DA6EFB0EE3CF15
:1049E800DFFFE150F90FD96EE250DA6EFF0EDA22DE
:1049F800FF0EE350030DFC0EE3CF52F0FD0EE3CFA4
:104A080053F0030E5224E96E000E5320EA6EEECFE7
:104A180052F0EDCF53F0F3505226F4505322010ECA
:104A28005224E96E000E5320EA6EDECFEEFFDDCF92
:104A3800EDFFFC0EE3CF52F0FD0EE3CF53F0050E71
:104A48005224D96E000E5320DA6EFF0EE350DE18A2
:104A5800D8A453D0FC0EE3CF52F0FD0EE3CF53F0B1
:104A6800050E5224D96E000E5320DA6EDF2A030E8B
:104A7800E66E000EE66EFA0EE3CF52F0FB0EE3CFC1
:104A880053F0050E5224D96E000E5320DA6EDF5013
:104A9800526E536A010E5226000E532252C0E6FF90
:104AA80053C0E6FF77EC34F051C0E6FF52C0E6FF92
:104AB800FA0EE3CF52F0FB0EE3CF53F0030E52246D
:104AC800D96E000E5320DA6EDECF52F0DDCF53F0F0
:104AD80052C0E6FF53C0E6FFA9EC3AF0FC0EE3CF64
:104AE8005BF0FD0EE3CF5CF0030E5B24D96E000E85
:104AF8005C20DA6E000EDE6EDD6EF90EE126FF0E2A
:104B0800E2221200090EE126000EE222F30EE3CFA4
:104B180052F0F40EE3CF53F0F80E53C0E3FFF70E54
:104B280052C0E3FFF30EE350020F526EF40EE3CFD0
:104B380053F0000E5322FA0E53C0E3FFF90E52C091
:104B4800E3FFF30EE350030F526EF40EE3CF53F07E
:104B5800000E5322FE0E53C0E3FFFD0E52C0E3FFCA
:104B6800F50EE3CF52F0F60EE3CF53F0370E522492
:104B7800D96E000E5320DA6EDECF52F0DDCF53F03F
:104B8800FB0E52C0E3FFFC0E53C0E3FFF50EE3CF6C
:104B980052F0F60EE3CF53F0390E5224D96E000EC0
:104BA8005320DA6EDF505C6EFF0E5CC0E3FFF90E37
:104BB800E3CFD9FFFA0EE3CFDAFF010EDF6417D097
:104BC800F70EE3CFE9FFF80EE3CFEAFFFB0EEECFD7
:104BD800E3FFFC0EEDCFE3FFFD0EE3CFD9FFFE0EA2
:104BE800E3CFDAFF010EDF6EFF0EE36A5DD0F70E4A
:104BF800E3CFD9FFF80EE3CFDAFFDECF52F0DDCFF7
:104C080053F052C0E6FF53C0E6FFF30EE3CFE6FFD2
:104C1800E3CFE6FF2FEC33F05150D8B411D0F70EA4
:104C2800E3CFE9FFF80EE3CFEAFFFB0EEECFE3FF99
:104C3800FC0EEDCFE3FFFF0EE36AE380E38434D09C
:104C4800F70EE3CFD9FFF80EE3CFDAFFDECF52F04D
:104C5800DDCF53F052C0E6FF53C0E6FFF30EE3CFBB
:104C6800E6FFE3CFE6FFE7EC36F05150D8B41CD0AE
:104C7800F70EE3CFD9FFF80EE3CFDAFFDECF52F01D
:104C8800DDCF53F052C0E6FF53C0E6FFF30EE3CF8B
:104C9800E6FFE3CFE6FF1DEC37F0FB0E51C0E3FF64
:104CA800FC0E52C0E3FFC7D7E150FB0FD96EE250AC
:104CB800DA6EFF0EDA22F70EE3CFE9FFF80EE3CF44
:104CC800EAFFDECFEEFFDDCFEDFFF90EE3CFD9FF30
:104CD800FA0EE3CFDAFFFF0EE3CFDFFFF30EE12694
:104CE800FF0EE22212000B0EE126000EE22220EE59
:104CF8004AF0E150F50FE96EE250EA6EFF0EEA2243
:104D0800040EDBCFEBFFE806FCE2F50EE124526E61
:104D1800FF0EE220536EFB0E53C0E3FFFA0E52C0A3
:104D2800E3FFFF0EE36AE32AF10EE3CF51F0FC0E36
:104D380051C0E3FFF20EE3CF51F0FD0E51C0E3FF87
:104D480040D0F00EE350D8A408D0F10EE3CF51F0D4
:104D5800F20EE3505110D8A421D0FC0EE3CF52F04C
:104D6800FD0EE3CF53F0070E5216000E5316430EF6
:104D78005224D96E000E5320DA6EFF0EE3CF5CF09A
:104D8800FA0EE3CF52F0FB0EE3CF53F05C505224FF
:104D9800E96E000E5320EA6EDFCFEFFF030E5C6E64
:104DA800E150FC0FD96EE250DA6EFF0EDA225C2871
:104DB80004D0D92AD890DD32DF32E82EFAD7FF0E98
:104DC800E32AFC0EE3CF51F0FD0EE3505110D8A4B6
:104DD800B8D7F00EE350D8A408D0F10EE3CF51F0C5
:104DE800F20EE3505110D8A411D0F00EE350526ED9
:104DF800536A430E5224D96E000E5320DA6EFA0E0F
:104E0800E3CFE9FFFB0EE3CFEAFF16D0FF0EE35036
:104E1800526E536A420E5224D96E000E5320DA6E37
:104E2800FA0EE3CF52F0FB0EE3CF53F0010E5224FB
:104E3800E96E000E5320EA6EDFCFEFFFFE0EE36A45
:104E4800040E526E000E536EFE0EE350525E000EBC
:104E5800535AF50EE1245B6EFF0EE2205C6E525051
:104E68005B24D96E53505C20DA6EFE0EE3CF5CF003
:104E7800EE0EE3CF52F0EF0EE3CF53F05C50522426
:104E8800E96E000E5320EA6EDFCFEFFFFE0EE32A35
:104E9800FE0EE3CF51F0040E5164D2D7EE0EE12698
:104EA800FF0EE2221200100EE126000EE222070E8B
:104EB800E66E000EE66E8BEC11F051EC3BF03F50C5
:104EC800515C596E405052585A6E415053585B6E5F
:104ED800425054585C6E5CBEA5D05C505B1006E135
:104EE800E80E595C030E5A58D8A09CD051EC3BF000
:104EF80051C03FF052C040F053C041F054C042F09E
:104F0800000EE66E040EE66E000EE66E4D0EE66EC0
:104F18003F0EE66E000EE66E070EE66E000EE66EBB
:104F2800E9EC28F05150D8A425D0070EE66E000E03
:104F3800E66EA8EC29F05150D8A415D0520EE66EB2
:104F4800FF0EE66EBCEC3AF0600EE66EEA0EE66E18
:104F5800000EE66E000EE66E070EE66E000EE66EBA
:104F6800CBEC1AF05FD0E80EE66EFE0EE66EBCECF7
:104F78003AF058D0AF0EE66EFF0EE66E7CEC32F0DB
:104F88003FC0E6FF40C0E6FF6FEC39F051C0E6FFD6
:104F980052C0E6FFBCEC3AF045D0080EE66E000EB3
:104FA800E66EEE0EE124E66EFF0EE220E66EF40EEB
:104FB800E124E66EFF0EE220E66E640EE66E010E58
:104FC800E66E4FEC1FF00D0EE66EFF0EE66E7CEC03
:104FD80032F0F40EE124D96EFF0EE220DA6EDECF55
:104FE80052F0DDCF53F052C0E6FF53C0E6FF6FEC3E
:104FF80039F051C0E6FF52C0E6FF7CEC32F0F60E05
:10500800E66EFF0EE66E7CEC32F0F00EE3CFE6FFC4
:10501800E3CFE6FF6FEC39F051C0E6FF52C0E6FF80
:10502800BCEC3AF0640EE66E010EE66EB7EC39F0B1
:105038005150D8A4B2D7F00EE126FF0EE22212009A
:10504800E652FD0EE3CF52F0FE0EE3CF53F0320EE0
:105058005224D96E000E5320DA6EFB0EE3CFE9FF1F
:10506800FC0EE3CFEAFFDECFEEFFDDCFEDFF080E4B
:10507800E66E000EE66EF90EE3CF52F0FA0EE3CFBD
:1050880053F052C0E6FF53C0E6FF200EE66EF80E5E
:10509800E350070F526EF90EE3CF53F0000E532280
:1050A80052C0E6FF53C0E6FF19EC2FF0F60EE3CF2F
:1050B80051F0F70EE3505110D8B41BD0F60EE3CFE1
:1050C800E6FFE3CFE6FFF60EE3CFE6FFE3CFE6FF2A
:1050D800E3CFE6FFF80EE3500F0F526EF90EE3CF61
:1050E80053F0000E532252C0E6FF53C0E6FF19ECFE
:1050F8002FF0F40EE3CF51F0380E511804E1F50EFD
:10510800E350D8B440D0FF0EE36AE380E382FB0E9D
:10511800E3CF52F0FC0EE3CF53F0020E5224D96EC7
:10512800000E5320DA6E400EDE18DE10D8A403D02D
:10513800FF0EE36AE384FB0EE3CF52F0FC0EE3CFED
:1051480053F0020E5224D96E000E5320DA6EF40E7C
:10515800E350DE1808E1F50EE350DE18D8A403D0BA
:10516800FF0EE36AE382FF0EE350E66EF30EE3CF31
:10517800E6FFE3CFE6FFFA0EE3CFE6FFE3CFE6FF75
:1051880055EC0FF01DD0000EE66EFA0EE3CF52F08C
:10519800FB0EE3CF53F0020E5224D96E000E5320BB
:1051A800DA6EDECF52F0DDCF53F052C0E6FF53C0C7
:1051B800E6FFFA0EE3CFE6FFE3CFE6FF55EC0FF08C
:1051C800F40EE126FF0EE22212000A0EE126000E7E
:1051D800E222F40EE3CF52F0F50EE3CF53F0010EC6
:1051E8005224D96E000E5320DA6E240EDE1807E121
:1051F800090EDE18D8A403D0000E516EA0D0FE0E02
:10520800E36AFF0EE36A51EC3BF051C059F052C01B
:105218005AF053C05BF054C05CF0B80E5924556E78
:105228000B0E5A20566E000E5B20576E000E5C2047
:10523800586EFA0E55C0E3FFFB0E56C0E3FFFC0E96
:1052480057C0E3FFFD0E58C0E3FF320E596E5A6A8D
:105258005B6A5C6AF60E59C0E3FFF70E5AC0E3FFBB
:10526800F80E5BC0E3FFF90E5CC0E3FFEE0EE350FF
:10527800D8A439D04BD051EC3BF0FA0EE3CF55F01F
:105288005150555CFB0EE3CF55F052505558FC0E6B
:10529800E3CF55F053505558FD0EE350800A556E34
:1052A8005450800A5558D8A0A7D7FE0EE3CF51F026
:1052B800FE0E511804E1FF0EE328D8B49DD7E15043
:1052C800F60FD96EE250DA6EFF0EDA22320EDE26C3
:1052D800000EDE22DE22DE22F60EE3CFE6FFE3CF6B
:1052E800E6FFD7EC32F0EE0EE350E66EF30EE3CFB6
:1052F800E6FFE3CFE6FFFBEC17F0FE0E51C0E3FF3D
:10530800FF0E52C0E3FFFF0EE3BEB5D7EF0EE3CFAB
:10531800E6FFE3CFE6FFEF0EE350E66EEF0EE3CFD6
:10532800E6FFE3CFE6FFF90EE3CFE6FFE3CFE6FFC4
:10533800ED0EE3CFE6FFE3CFE6FF20EC32F0EE0E12
:10534800E126FF0EE22212000A0EE126000EE222FA
:10535800FF0EE36AE380E382FE0EE36A78D0F40E80
:10536800E3CFE6FFE3CFE6FF8BEC11F0F40EE3CFDB
:1053780052F0F50EE3CF53F0060E5224D96E000E0C
:105388005320DA6EDECF52F0DDCF53F052C0E6FF85
:1053980053C0E6FFDAEC3AF05150D8A414D0F40E1A
:1053A800E3CF52F0F50EE3CF53F0080E5224D96E36
:1053B800000E5320DA6E00EE2AF0DE50E926DD50AA
:1053C800EA22EFA003D0010E516E77D0820EE66E6E
:1053D800000EE66E000EE66EF30EE124E66EFF0E9A
:1053E800E220E66E54EC35F0000EE66E000EE66E36
:1053F800000EE66E000EE66E000EE66EF10EE1247B
:10540800E66EFF0EE220E66EED0EE3CF52F0EE0EF2
:10541800E3CF53F0080E5224D96E000E5320DA6EF3
:10542800DECF52F0DDCF53F052C0E6FF53C0E6FFA7
:10543800D9EC39F0FE0E51C0E3FFFE0EE350D8A4BC
:105448001FD0670EE66E000EE66ED7EC32F0FF0E48
:10545800E306FF0EE328D8B413D0F40EE3CF52F0DE
:10546800F50EE3CF53F0010E5224D96E000E5320EF
:10547800DA6E240EDE1803E1090EDE18D8A46FD701
:10548800FE0EE350D8A416D0F40EE3CF52F0F50E7A
:10549800E3CF53F0060E5224D96E000E5320DA6E75
:1054A800DECF52F0DDCF53F052C0E6FF53C0E6FF27
:1054B80092EC2FF0FE0EE3CF51F0F40EE126FF0E32
:1054C800E2221200070EE126000EE222F50EE3CFDB
:1054D80052F0F60EE3CF53F0FE0E53C0E3FFFD0E7D
:1054E80052C0E3FFF70EE3CF52F0F80EE3CF53F0CC
:1054F800050E5224D96E000E5320DA6EF40EE3CF57
:1055080051F0DE50515CD8A00ED0F70EE3CF52F028
:10551800F80EE3CF53F0050E5224D96E000E532037
:10552800DA6EDF5002D0F40EE350526E536AFB0E6F
:1055380052C0E3FFFC0E53C0E3FFFB0EE3CF51F074
:10554800F40E51C0E3FFF70EE3CF52F0F80EE3CFAD
:1055580053F0060E5224D96E000E5320DA6EDF5037
:10556800D8A41BD0F70EE3CF52F0F80EE3CF53F0D8
:10557800050E5224D96E000E5320DA6EDF50526E9B
:10558800536AF40EE350525E000E535AF90E52C09D
:10559800E3FFFA0E53C0E3FF04D0F90EE36AFA0EF4
:1055A800E36AF90EE3CF51F0FF0E51C0E3FFF70EA7
:1055B800E3CFE6FFE3CFE6FF1AEC3BF0F30EE35050
:1055C800E66E3EEC3BF017D0E150FD0FD96EE2508D
:1055D800DA6EFF0EDA22DFCF52F0010EDE26DFCFC1
:1055E80053F0000EDD2252C0D9FF53C0DAFFDF505E
:1055F800E66E3EEC3BF0F40EE306F40EE328D8B476
:1056080005D0E2D7000EE66E3EEC3BF0FF0EE30657
:10561800FF0EE328D8A4F6D7F70EE3CFE6FFE3CFD3
:10562800E6FF0EEC3BF0F30EE126FF0EE22212003D
:10563800E150FC0FD96EE250DA6EFF0EDA22FE0E50
:10564800E3CF52F0FF0EE3CF53F02F0E5224E96E52
:10565800000E5320EA6EDECFEEFFDDCFEDFFFE0E2B
:10566800E3503C0F526EFF0EE3CF53F0000E53226F
:10567800FE0EE3CF5BF0FF0EE3CF5CF0D60E5B24AB
:10568800D96E000E5C20DA6E52C0DEFF53C0DDFF1B
:10569800FE0EE350E40F526EFF0EE3CF53F0000E00
:1056A8005322FE0EE3CF5BF0FF0EE3CF5CF0E20E79
:1056B8005B24D96E000E5C20DA6E52C0DEFF53C048
:1056C800DDFFFE0EE350D80F526EFF0EE3CF53F00E
:1056D800000E5322FE0EE3CF5BF0FF0EE3CF5CF02B
:1056E800270E5B24D96E000E5C20DA6E52C0DEFFF6
:1056F80053C0DDFFFE0EE3CF52F0FF0EE3CF53F0B1
:105708002B0E5224D96E000E5320DA6EDE6ADE6A42
:10571800DE6ADD6AFE0EE3CF52F0FF0EE3CF53F0F0
:105728002A0E5224D96E000E5320DA6E000EDF6E58
:10573800FE0EE3CF52F0FF0EE3CF53F0290E5224B2
:10574800D96E000E5320DA6E000EDF6EFE0EE3CF28
:10575800D9FFFF0EE3CFDAFF000EDF6EFE0EE3CFB8
:1057680052F0FF0EE3CF53F0350E5224D96E000EDF
:105778005320DA6E180EDE6E000EDD6EE552E5522D
:10578800E552E5521200050EE126000EE222F70E60
:10579800E3CF52F0F80EE3CF53F0FE0E53C0E3FF11
:1057A800FD0E52C0E3FFF90EE3CF52F0FA0EE3CF3D
:1057B80053F0050E5224D96E000E5320DA6EF60E01
:1057C800E350DE5CD8B011D0F90EE3CF52F0FA0EF8
:1057D800E3CF53F0050E5224D96E000E5320DA6E33
:1057E800DF505C6EF60E5CC0E3FFF90EE3CF52F0BB
:1057F800FA0EE3CF53F0060E5224D96E000E532052
:10580800DA6EDF50D8A41BD0F90EE3CF52F0FA0EAF
:10581800E3CF53F0050E5224D96E000E5320DA6EF2
:10582800DF50526E536AF60EE350525E000E535A22
:10583800FB0E52C0E3FFFC0E53C0E3FF04D0FB0E87
:10584800E36AFC0EE36AFB0EE3CF51F0FF0E51C092
:10585800E3FFF90EE3CFE6FFE3CFE6FF1AEC3BF0F8
:10586800610EE66E3EEC3BF01BD0FD0EE3CFD9FF98
:10587800FE0EE3CFDAFFFF0EE66E3EEC3BF0515032
:10588800DF6EFD0EE350010F516EFD0E51C0E3FFB8
:10589800516AFE0EE3505120516EFE0E51C0E3FFD7
:1058A800F60EE306F60EE328D8B405D0DED7FF0ED1
:1058B800E66E3EEC3BF0FF0EE306FF0EE328D8A4AD
:1058C800F6D7F90EE3CFE6FFE3CFE6FF0EEC3BF0A9
:1058D800F60EE126FF0EE2221200E652E652E652EA
:1058E800E652F50EE350D8B410D0FA0EE3CFE6FF37
:1058F800E3CFE6FF92EC2FF0010EE66EF90EE3CF50
:10590800E6FFE3CFE6FFD5EC38F051EC3BF0FC0EB8
:1059180051C0E3FFFD0E52C0E3FFFE0E53C0E3FF8C
:10592800FF0E54C0E3FF58D0FA0EE3CFE6FFE3CFF3
:10593800E6FF26EC3BF051A84FD0100EE66E070E9E
:10594800E66EF80EE3CFE6FFE3CFE6FF49EC39F069
:10595800000EE66EF90EE3CFE6FFE3CFE6FFD5ECE7
:1059680038F0010EE66EF90EE3CFE6FFE3CFE6FF6F
:10597800D5EC38F051EC3BF0FC0EE350515EFD0ED7
:10598800E350525AFE0EE350535AFF0EE350545A56
:10599800F60EE350515CF70EE3505258F80EE35000
:1059A80053585450800A5B6EF90EE350800A5B58D6
:1059B800D8A012D0000EE66EF90EE3CFE6FFE3CFD3
:1059C800E6FFD5EC38F0FA0EE3CFE6FFE3CFE6FFCB
:1059D80032EC3BF0000E15D0170EE66EF90EE3CF51
:1059E800E6FFE3CFE6FF93EC39F051A89DD7000E10
:1059F800E66EF90EE3CFE6FFE3CFE6FFD5EC38F02D
:105A0800010E516EF50EE126FF0EE2221200060E7F
:105A1800E126000EE222FF0EE36AF60EE3CF52F013
:105A2800F70EE3CF53F0FF0EE350525E000E535AC9
:105A3800040E5224D96E000E5320DA6EFF0EE3CF07
:105A48005CF0FA0EE124526EFF0EE220536E5C50B9
:105A58005224E96E000E5320EA6EDFCFEFFFFF0EEF
:105A6800E32AFF0EE3CF51F0040E5164D6D7F80EA7
:105A7800E3CF52F0F90EE3CF53F00C0E5224D96E57
:105A8800000E5320DA6EDF50E66EF90EE124E66E62
:105A9800FF0EE220E66E0A0EE66EF40EE3CFE6FF96
:105AA800E3CFE6FF40EC36F0F80EE3CF52F0F90E04
:105AB800E3CF53F00C0E5224D96E000E5320DA6E49
:105AC800DF50E66EF90EE124E66EFF0EE220E66E88
:105AD800100EE66EF40EE3CFE6FFE3CFE6FF40ECF0
