:040000000AEF00F013
:10000800E1CF01F0E2CF02F0B5ED26F013EE26F0D5
:0400180028EF22F0BB
:10100000001112131415160A0B0C0D0E0F0001021D
:10101000030405436F6E6E656374696E6720746FB9
:1010200020746865206D6573682E2E2E0053656EE2
:1010300064206661696C2C2054657374204F4B00EA
:101040005265636569766564207061636B657420C1
:10105000230052656E6577696E672041646472652E
:1010600073730053656E64204F4B3A200020617407
:1010700020000D0A0000000E306EE6C11EF0F80ED2
:101080001E24316E326AFF0E3222010E2F6E20EEC8
:1010900006F01C50D9261D50DA22940EDE18D8B462
:1010A00020D020EE06F01C50D9261D50DA22950ED5
:1010B000DE18D8B416D020EE06F01C50D9261D50EC
:1010C000DA22960EDE18D8B40CD020EE06F01C50B2
:1010D000D9261D50DA22C80EDE18D8B402D0000E70
:1010E0002F6E2FC02CF02C50D8B4D5D120EE06F0A6
:1010F0001C50D9261D50DA22940EDE18D8A4A3D095
:1011000020EE07F01C50D9261D50DA22DF501E6E4B
:10111000000E046E0A0E036EE7C105F0E8C106F08A
:1011200097EC24F0031E041E034A042A9A0E032699
:10113000000E04221E50035C000E0458D8B005D0E7
:10114000000EE8CF91F2000E120020EE04F01C50C9
:10115000D9261D50DA2202EE8EF0DE50EE1813E191
:10116000DE50EE18D8A40FD01CC0D9FF1DC0DAFF86
:1011700002EE8AF0DE50EE1806E1DE50EE18D8A43A
:1011800002D0010E120020EE07F01C50D9261D508F
:10119000DA22DF501E6E1E50180D22EE88F0DECFD0
:1011A0001FF0DDCF20F0B40E216E010E226E3A0E3C
:1011B0002126000E2222211E221E214A222A1F50F1
:1011C000212620502222211E221E214A222A900E50
:1011D0002126000E2222F350215C2250800A236E29
:1011E000F450800A2358D8B007D0DEC1E8FF0109C7
:1011F000E8CFDEF194EC22F08A0E056E020E066E48
:10120000BB0E076E010E086E000E0A6E080E096E08
:1012100014EC24F094C205F095C206F0C30E076EDC
:10122000010E086E31C009F032C00AF014EC24F04F
:1012300031C092F232C093F291C2E8FFFF0FE8CFC3
:1012400091F2010E120020EE06F01C50D9261D501E
:10125000DA22960EDE18D8B414D020EE06F01C5018
:10126000D9261D50DA22950EDE18D8B40AD020EE09
:1012700006F01C50D9261D50DA22C80EDE18D8A45C
:101280002ED122EE92F0DECF1EF0DDCF1FF03150D6
:101290001E2632501F221F5004E1910E1E5CD8A062
:1012A00005D0000EE8CF91F2000E120022EE91F070
:1012B000DF50D8B425D020EE06F01C50D9261D50A2
:1012C000DA22960EDE18D8B40CD022EE91F000EEA1
:1012D00007F01C50E9261D50EA22DE50EE18D8A473
:1012E0000FD020EE04F01C50D9261D50DA2202EE59
:1012F0008EF0DE50EE1804E1DE50EE18D8B402D0C5
:10130000000E120022EE92F0DECF1EF0DDCF1FF0B5
:1013100022EE94F0DECF20F0DDCF21F01E5020240D
:10132000056E1F502120066EC30E076E010E086E5B
:1013300031C009F032C00AF014EC24F022EE92F031
:101340003150DE263250DD2220EE06F01C50D92628
:101350001D50DA22960EDE18D8B407D091C2E8FFED
:10136000FF0FE8CF91F2010E1200000EE8CF91F2CC
:1013700020EE07F01C50D9261D50DA22DF501E6ED9
:101380001EC090F290C2E8FF830AD8A402D0020ED9
:10139000120022EE92F002EE88F0EECF20F0EDCFB8
:1013A00021F0B40E226E010E236E3A0E2226000E9C
:1013B0002322221E231E224A232A20502226215085
:1013C0002322221E231E224A232A900E2226000EAA
:1013D0002322DE50225C2350800A246EDE50800AD5
:1013E0002458D8A04FD088C205F089C206F08A0ED2
:1013F000076E020E086E000E0A6E0A0E096E14ECDD
:1014000024F022EE88F0DECF1EF0DDCF1FF00A0EB2
:101410001E24056E000E1F20066E94C207F095C2B2
:1014200008F092C209F093C20AF014EC24F022EE04
:1014300092F0DECF1EF0DDCF1FF00A0E1E26000E4A
:101440001F2222EE88F01E50DE261F50DD220201F0
:1014500092510A0F030B2D6E2D50D8B411D02D5080
:101460001E6E1F6A1E1E1F1E1E4A1F2A040E1E26E7
:10147000000E1F2222EE88F01E50DE261F50DD22B5
:10148000010E120094EC22F0DEC1E8FF0109E8CF62
:10149000DEF1000E120020EE06F01C50D9261D5081
:1014A000DA22830EDE18D8A41AD08A0E056E020E38
:1014B000066EBB0E076E010E086E000E0A6E080E59
:1014C000096E14EC24F0C30EE8CF94F2010EE8CFBD
:1014D00095F231C092F232C093F2020E120022EE67
:1014E00088F0DECF1EF0DDCF1FF0B40E206E010EAF
:1014F000216E3A0E2026000E2122201E211E204A97
:10150000212A1E5020261F502122315020263250E1
:10151000212221BE06D0215064E19B0E205CD8B070
:1015200060D088C205F089C206F0BB0E076E010EBE
:10153000086E000E0A6E080E096E14EC24F022EEFE
:1015400088F0DECF1EF0DDCF1FF0080E1E24056EE2
:10155000000E1F20066E310E076E000E086E000E84
:101560000A6E020E096E14EC24F022EE88F0DECF33
:101570001EF0DDCF1FF00A0E1E24056E000E1F2088
:10158000066EC30E076E010E086E31C009F032C040
:101590000AF014EC24F00A0E31241E6E000E3220E4
:1015A0001F6E22EE88F01E50DE261F50DD223150C5
:1015B0000A0F030B2E6E2E50D8B411D02E501E6E73
:1015C0001F6A1E1E1F1E1E4A1F2A040E1E26000E04
:1015D0001F2222EE88F01E50DE261F50DD22010E53
:1015E00001D0000E306E30501200050EE126000EC4
:1015F000E222FE0EE36A21EEDEF0DFB285D221EEBA
:10160000DEF0DFB01ED022EE88F0DECF6FF0DDCF4F
:1016100070F0B40E786E010E796EE80E766EFF0EE5
:10162000776E7850765E7950775A6F507626705084
:10163000772277BE69D2775004E19B0E765CD8A002
:1016400063D24FEC27F00009D8A406D0DEC1E8FF32
:10165000FE0BE8CFDEF158D2000E9BD1E9EC25F06D
:1016600021EEE6F0DF6E080EDF6007D0000E0A6E96
:101670000A0E096EE6EC24F047D2BB0E226E010E74
:10168000236EE6C124F07FEC27F0010E6E6EFD0E96
:101690006EC0E3FFBB0E6E6EFC0E6EC0E3FFFC0E71
:1016A000E3CF6FF0FD0EE3CF70F0020E6F24D96E22
:1016B000000E7020DA6EDECF03F0DDCF04F020ECF8
:1016C00026F00009D8B420D2FC0EE3CF6FF0FD0E57
:1016D000E3CF70F0060E6F24D96E000E7020DA6E24
:1016E000DF50796EFE0E79C0E3FF21EEE4F0FC0ED0
:1016F000E3CF6FF0FD0EE3CF70F0020E6F24E96EC2
:10170000000E7020EA6EDE50EE1803E1DE50EE1897
:10171000D8A441D1FC0EE3CF6FF0FD0EE3CF70F003
:10172000060E6F24D96E000E7020DA6E820EDE185F
:10173000D8B4EAD1FC0EE3CF6FF0FD0EE3CF70F02A
:10174000060E6F24D96E000E7020DA6E800EDE1841
:10175000D8A450D021EEE4F0240EDE1804E1090EE6
:10176000DE18D8B447D0FC0EE3CF6FF0FD0EE3CF08
:1017700070F0020E6F24D96E000E7020DA6E240E07
:10178000DE6E090EDD6E020EE66EFB0EE3CF6FF02D
:10179000FC0EE3CF70F0020E6F24D96E000E7020A5
:1017A000DA6EDECF6FF0DDCF70F06FC0E6FF70C095
:1017B000E6FF5DEC0FF0000E0A6E0A0E096EE6EC15
:1017C00024F0020EE66EFB0EE3CF6FF0FC0EE3CFCB
:1017D00070F0020E6F24D96E000E7020DA6EDECF2C
:1017E0006FF0DDCF70F06FC0E6FF70C0E6FF5DEC1C
:1017F0000FF08AD1FC0EE3CF6FF0FD0EE3CF70F057
:10180000060E6F24D96E000E7020DA6EC30EDE183D
:10181000D8A43BD021EEE4F0DE50DE10D8B435D0B1
:1018200021EEE4F0FC0EE3CFE9FFFD0EE3CFEAFF8B
:10183000DECFEEFFDDCFEDFFFC0EE3CF6FF0FD0E50
:10184000E3CF70F0020E6F24D96E000E7020DA6EB6
:10185000000EDE6E000EDD6E000EE66EFB0EE3CFB8
:101860006FF0FC0EE3CF70F0020E6F24D96E000E05
:101870007020DA6EDECF6FF0DDCF70F06FC0E6FF64
:1018800070C0E6FF5DEC0FF03FD121EEDDF0DF50E0
:10189000D8B40FD0FC0EE3CF6FF0FD0EE3CF70F0A5
:1018A000060E6F24D96E000E7020DA6E800EDF6097
:1018B00010D0FC0EE3CF6FF0FD0EE3CF70F0060EFC
:1018C0006F24D96E000E7020DA6EC10EDE18D8A417
:1018D00054D0FC0EE3CF6FF0FD0EE3CF70F0060E98
:1018E0006F24D96E000E7020DA6E940EDE18D8B414
:1018F00044D0FC0EE3CF6FF0FD0EE3CF70F0060E88
:101900006F24D96E000E7020DA6E950EDE18D8B4F2
:1019100034D0FC0EE3CF6FF0FD0EE3CF70F0060E77
:101920006F24D96E000E7020DA6EC80EDE18D8B49F
:1019300024D0FC0EE3CF6FF0FD0EE3CF70F0060E67
:101940006F24D96E000E7020DA6E830EDE18D8B4C4
:1019500014D0FC0EE3CF6FF0FD0EE3CF70F0060E57
:101960006F24D96E000E7020DA6E960EDE18D8B491
:1019700004D0FE0EE3CF6EF0DCD0FC0EE3CF1CF003
:10198000FD0EE3CF1DF03BEC08F0020AD8A4BCD05A
:10199000830E6E6ECED0FC0EE3CF6FF0FD0EE3CF64
:1019A00070F0020E6F24D96E000E7020DA6E400EB9
:1019B000DE18DE10D8A490D0FC0EE3CF6FF0FD0E41
:1019C000E3CF70F0060E6F24D96E000E7020DA6E31
:1019D000C20EDE18D8A44FD021EEDEF0DFB694D0D0
:1019E00021EEE4F0240EDE1804E1090EDE18D8B46E
:1019F0008BD0FC0EE3CFD9FFFD0EE3CFDAFFFC0E58
:101A0000E3CF6FF0FD0EE3CF70F0020E6F24E96EAE
:101A1000000E7020EA6EDECFEEFFDDCFEDFF21EE8F
:101A2000E4F0FC0EE3CFE9FFFD0EE3CFEAFFDECFEB
:101A3000EEFFDDCFEDFF21EEEBF0DF50096E0A6A1D
:101A4000E6EC24F0020EE66EFB0EE3CF6FF0FC0E28
:101A5000E3CF70F0020E6F24D96E000E7020DA6EA4
:101A6000DECF6FF0DDCF70F06FC0E6FF70C0E6FF35
:101A70005DEC0FF049D0FC0EE3CF1CF0FD0EE3CF80
:101A80001DF03BEC08F0796EFB0E79C0E3FF21EE10
:101A9000B4F0DF50D8B41AD0040EE66E21EEE3F0B5
:101AA000DF50C0EC24F003C06FF004C070F0D89099
:101AB0006F367036D8906F367036D8906F36703675
:101AC0006FC0E6FF70C0E6FF5DEC0FF0FB0EE3CFEA
:101AD0006EF0020E6E185AD7010EE66EFB0EE3CFC3
:101AE0006FF0FC0EE3CF70F0020E6F24D96E000E83
:101AF0007020DA6EDECF6FF0DDCF70F06FC0E6FFE2
:101B000070C0E6FF5DEC0FF09BEC27F00009D8B445
:101B100030D7FF0EE1246F6EFF0EE220706E6FC0B3
:101B200015F070C016F06EEC26F00009D8B421D77D
:101B300095D5FB0EE126FF0EE22212000001B46FE4
:101B4000000E0001BE6F000E0001B56F000E000117
:101B5000BC6F000EBB6F000E0001B66FBF0E036EB0
:101B6000000E046E000E066E400E056EC20E076E6D
:101B70004FEC25F0BF0E0001806F000E0001816F59
:101B8000000E0001826F000E0001836F000E000145
:101B9000846F000E0001866F000E856FB4C087F061
:101BA000FCEC22F0E5EC27F003C0B7F004C0B8F07D
:101BB00005C0B9F006C0BAF0F5EC0AF0C20E6E1816
:101BC000D8A417D00001BE51020DAC0EF324056E4F
:101BD000000EF420066E21EC28F003C007F004C0CC
:101BE00008F0000E0A6E020E096E14EC24F00001DB
:101BF000BE2BB7C0A4F0B8C0A5F0B9C0A6F0BAC05B
:101C0000A7F00001A41FA51FA61FA71FA42B000E4D
:101C1000A523A623A723E5EC27F00001A451032464
:101C20000001A86F0001A55104200001A96F000167
:101C3000A65105200001AA6F0001A751062000014E
:101C4000AB6F0001AB510001AA110001A91109E11C
:101C5000380E0001A85DD8B004D0030E0001BE65A7
:101C6000ABD70001BE510001D8A402D0000E120073
:101C7000000E0001BD6F8BD0C30E0001C56FFF0EBB
:101C80000001886F87691FEC17F000018751000180
:101C9000C66F0001BD51020DAC0EF324D96E000ECB
:101CA000F420DA6EDECFC1F0DDCFC2F0BF0E516E90
:101CB000000E526E000E536E000E546E000E556EE6
:101CC000000E576E000E566E0001BD51020DAC0E97
:101CD000F324D96E000EF420DA6EDECF58F0DDCF9B
:101CE00059F0E8EC10F0E5EC27F003C0B7F004C0C1
:101CF000B8F005C0B9F006C0BAF00DD0F5EC0AF0A6
:101D00006E500001B66F800E0001B619D8A403D042
:101D1000BEC0BDF034D0B7C0A4F0B8C0A5F0B9C003
:101D2000A6F0BAC0A7F00001A41FA51FA61FA71FF9
:101D3000A42B000EA523A623A723E5EC27F0000182
:101D4000A45103240001A86F0001A5510420000143
:101D5000A96F0001A65105200001AA6F0001A7513B
:101D600006200001AB6F0001AB510001AA11000178
:101D7000A91105E1E10E0001A85DD8A0BFD7000EB2
:101D80000A6E050E096EE6EC24F00001BD2B000181
:101D9000BE510001BD5DD8A06FD7800E0001B619FD
:101DA000D8B402D0000E1200BB0E056E000E066EF7
:101DB00021EC28F0080E0324076E000E0420086EA4
:101DC000000E0A6E020E096E14EC24F00001BB51E5
:101DD0000001BC11D8B41DD021EC28F0070E03245B
:101DE000D96E000E0420DA6EDF500001A46FA56BDF
:101DF000FF0E0001886F87691FEC17F00001875103
:101E00000001A41906E1000188510001A519D8B408
:101E100002D0000E1200BBC065F1BCC066F194ECAC
:101E200022F0000E0A6E0A0E096EE6EC24F065C17F
:101E30002FF066C130F0EEEC27F0000E0001C26F0B
:101E4000000EC16F810E0001C56F1CD00001B52BC3
:101E5000B5050001A46F050E0001A4650DD0090EA3
:101E6000306E240E2F6EEEEC27F0090E0101666F26
:101E7000240E656F000E1200000E0A6E030E096E2E
:101E8000E6EC24F0BF0E0001806F000E0001816FB0
:101E9000000E0001826F000E0001836F000E000132
:101EA000846F000E0001866F000E856FCBEC26F06C
:101EB0000009D8B4CBD7010E12000C0EE126000E9B
:101EC000E222FF0EE36A21EEC1F0400EDF6408D08B
:101ED00021EEC1F0C00EDF6003D0FF0EE36AE32AFB
:101EE000F20EE3CF03F0F30EE3CF04F020EC26F084
:101EF0000009D8A403D0000E6E6E65D1F20EE3CFB8
:101F00006EF0F60E6EC0E3FFF30EE3CF6EF0F70E49
:101F10006EC0E3FFF80EE124D96EFF0EE220DA6E08
:101F2000F10EE3CFDFFFF90EE124D96EFF0EE220C0
:101F3000DA6E000EDF6EF60EE1246F6EFF0EE22009
:101F4000706E6FC015F070C016F04FEC1CF0F60EFE
:101F5000E3CF35F0F70EE3CF36F0F80EE124D96E7B
:101F6000FF0EE220DA6EDF50376EF90EE124D96EF3
:101F7000FF0EE220DA6EDF50386EE0EC1FF0796E73
:101F8000FE0E79C0E3FFF10EE304D8A489D0FE0E63
:101F9000E350D8B485D0E150F60FD96EE250DA6E36
:101FA000FF0EDA22F20EE350DE187AE1F30EE35070
:101FB000DE18D8A475D0FF0EE350D8B471D0010E4E
:101FC0006E6EF50E6EC0E3FFBB0E6E6EF40E6EC04D
:101FD000E3FFF40EE3CF6FF0F50EE3CF70F0060EE3
:101FE0006F24D96E000E7020DA6EC10EDF6EF40E13
:101FF000E3CFD9FFF50EE3CFDAFFF40EE3CF6FF0B6
:10200000F50EE3CF70F0020E6F24E96E000E702023
:10201000EA6EDECFEEFFDDCFEDFFF40EE3CFE9FF9A
:10202000F50EE3CFEAFFF60EEECFE3FFF70EEDCFAE
:10203000E3FFF80EE124D96EFF0EE220DA6E010E06
:10204000DF6EF90EE124D96EFF0EE220DA6E000E8B
:10205000DF6EF60EE1246F6EFF0EE220706E6FC031
:1020600015F070C016F04FEC1CF0080EE8CFE6F14A
:10207000F60EE3CF35F0F70EE3CF36F0F80EE1249D
:10208000D96EFF0EE220DA6EDF50376EF90EE124D2
:10209000D96EFF0EE220DA6EDF50386EE0EC1FF0F2
:1020A000FE0EE350D8B487D0E150F60FD96EE2505F
:1020B000DA6EFF0EDA22F20EE350DE1805E1F30EBF
:1020C000E350DE18D8B477D0F10EE350D8B407D07F
:1020D000F10EE3CF6EF0030E6E18D8A46CD0FF0E95
:1020E000E350D8B468D021EEDEF0DFA416D0B5C13D
:1020F0001CF0B6C11DF0B7C11EF0B8C11FF0000E34
:10210000206ED6EC1EF0DEC1E8FFFB0BE8CFDEF15F
:10211000000E1A6E000E6CEC24F040EC24F0E5EC9E
:1021200027F003C076F004C077F005C078F006C051
:1021300079F0FA0E76C0E3FFFB0E77C0E3FFFC0EEA
:1021400078C0E3FFFD0E79C0E3FF2FD0E5EC27F068
:1021500003C076F004C077F005C078F006C079F0CF
:10216000FA0EE350765EFB0EE350775AFC0EE35016
:10217000785AFD0EE350795A21EEB9F0DECF74F0B3
:10218000DDCF75F074506E6E75506F6E706A716A47
:1021900076506E5C77506F587850705879507158FF
:1021A000D8B003D0FE0EE36A06D0F5EC0AF0C10EFB
:1021B0006E18D8A4CBD721EEDEF0DFA440EC24F0DB
:1021C000FE0EE3CF6EF0F10EE126FF0EE2221200CA
:1021D00006D0F5EC0AF07F0E6E6401D027D0DFC187
:1021E0005AF0E0C15BF0E1C15CF0E2C15DF05A1E63
:1021F0005B1E5C1E5D1E5A2A000E5B225C225D2265
:10220000E5EC27F05A5003245E6E5B5004205F6EAD
:102210005C500520606E5D500620616E615060105C
:102220005F1004E1190E5E5CD8A0D3D7C80E8FEC06
:1022300025F021EEE7F05650DE5C5750DE58D8A06E
:102240002BD056C05AF0080E5A265AC0E6F151C09B
:1022500045F052C046F053C047F054C048F055C056
:1022600049F056C04AF057C04BF058C04CF059C026
:102270004DF009EC1EF00009D8B402D0010E120096
:10228000E5EC27F003C0DFF104C0E0F105C0E1F1A7
:1022900006C0E2F1000E1200575004E1910E565CA8
:1022A000D8A002D0000E120056C003F057C004F0B0
:1022B000E7C105F0E8C106F097EC24F003C05AF03E
:1022C00004C05BF056C003F057C004F0E7C105F04E
:1022D000E8C106F02EEC25F003500410D8B402D06B
:1022E000010E01D0000E5A246A6E000E666E20EEBA
:1022F00002F05150D9265250DA22400EDE18DE107C
:10230000D8B407D0DEC1E8FF0409E8CFDEF194ECD1
:1023100022F0000E626E20EE06F05150D926525087
:10232000DA22DF50636E000E696E9DD020EE07F05A
:102330005150D9265250DA226AC0DFFF6A04D8A46D
:1023400011D020EE06F05150D9265250DA22960EC6
:10235000DF6E20EE07F05150D9265250DA2263C0CA
:10236000DFFF13D06650D8A408D020EE06F05150FD
:10237000D9265250DA22940E07D020EE06F05150A2
:10238000D9265250DA22950EDF6E66C003F0046A39
:10239000E7C105F0E8C106F007EC27F003C067F0DD
:1023A00004C068F021EEE7F067C05CF068C05DF043
:1023B0005C1E5D1E5C4A5D2A56505C2657505D22AD
:1023C000DE505C5CDE505D58D8A005D0E7C164F0FB
:1023D000E8C165F00ED067C05AF068C05BF05A1EC5
:1023E0005B1E5A4A5B2A56505A24646E57505B2033
:1023F000656E64C05AF0080E5A265AC0E6F151C004
:1024000045F052C046F0675053245A6E685054202D
:102410005B6E000E55205C6E5AC047F05BC048F002
:102420005CC049F064C04AF065C04BF058C04CF045
:1024300059C04DF009EC1EF0696E6950D8A408D05F
:10244000000E0A6E020E096EE6EC24F0622A04D039
:10245000000E626E6A06662A6950D8A404D0020E85
:10246000626401D003D06A50D8A460D720EE06F091
:102470005150D9265250DA2263C0DFFF21EEDEF040
:10248000DFA414D0B5C11CF0B6C11DF0B7C11EF059
:10249000B8C11FF0000E206ED6EC1EF0696E40EC45
:1024A00024F0000E1A6E000E6CEC24F0DEC1E8FF82
:1024B000FB0BE8CFDEF16950D8A402D0000E120069
:1024C0006A50D8B40CD0E5EC27F003C0DFF104C0AB
:1024D000E0F105C0E1F106C0E2F1000E1200010ECC
:1024E0001200046ED2D003B002D0929001D092803C
:1024F000120003B002D0929201D09282120003B077
:1025000002D0929401D09284120003B002D092962D
:1025100001D09286120003B002D0929801D0928826
:10252000120003B002D0929A01D0928A120003B036
:1025300002D0969001D09680120003B002D09692FD
:1025400001D09682120003B002D0969401D09684F6
:10255000120003B002D0929E01D0928E120003B0FE
:1025600002D0929C01D0928C120003B002D09490C1
:1025700001D09480120003B002D0949201D09482D2
:10258000120003B002D0949401D09484120003B0DE
:1025900002D0949601D09486120003B002D0959098
:1025A00001D09580120003B002D0959201D095829F
:1025B000120003B002D0959401D09584120003B0AC
:1025C00002D0959601D09586120003B002D094985F
:1025D00001D09488120003B002D0949A01D0948A5A
:1025E000120003B002D0949C01D0948C120003B06E
:1025F00002D0949E01D0948E120003B002D0959820
:1026000001D09588120003B002D0959A01D0958A26
:10261000120003B002D0959C01D0958C120003B03B
:1026200002D0959E01D0958E120003B002D09390F7
:1026300001D09380120003B002D0939201D0938214
:10264000120003B002D0939401D09384120003B01F
:1026500002D0939601D09386120003B002D09398D3
:1026600001D09388120003B002D0939A01D0938ACC
:10267000120003B002D0939C01D0938C120003B0DF
:1026800002D0939E01D0938E12000450020AD8B457
:102690002AD7010AD8B42DD7070AD8B430D7010AEF
:1026A000D8B433D7030AD8B436D7010AD8B439D747
:1026B0000F0AD8B43CD7010AD8B43FD7030AD8B41C
:1026C00042D7070AD8B445D7030AD8B448D7010A75
:1026D000D8B44BD71F0AD8B44ED7010AD8B451D7B3
:1026E000030AD8B454D7010AD8B457D7070AD8B4C4
:1026F0005AD7010AD8B45DD7030AD8B460D7010A03
:10270000D8B463D70F0AD8B466D7010AD8B469D74A
:10271000030AD8B46CD7010AD8B46FD7070AD8B463
:1027200072D7010AD8B475D7030AD8B478D73F0A4C
:10273000D8B47BD7030AD8B47ED7010AD8B481D7DE
:10274000070AD8B484D7010AD8B487D7030AD8B403
:102750008AD7010AD8B48DD70F0AD8A412008FD710
:10276000056ED2D003B002D0899001D089801200CA
:1027700003B002D0899201D08982120003B002D046
:10278000899401D08984120003B002D0899601D0C7
:102790008986120003B002D0899801D0898812007E
:1027A00003B002D0899A01D0898A120003B002D006
:1027B0008D9001D08D80120003B002D08D9201D097
:1027C0008D82120003B002D08D9401D08D8412004E
:1027D00003B002D0899E01D0898E120003B002D0CE
:1027E000899C01D0898C120003B002D08B9001D05B
:1027F0008B80120003B002D08B9201D08B8212002A
:1028000003B002D08B9401D08B84120003B002D0AD
:102810008B9601D08B86120003B002D08C9001D031
:102820008C80120003B002D08C9201D08C821200F6
:1028300003B002D08C9401D08C84120003B002D07B
:102840008C9601D08C86120003B002D08B9801D0F8
:102850008B88120003B002D08B9A01D08B8A1200B1
:1028600003B002D08B9C01D08B8C120003B002D03D
:102870008B9E01D08B8E120003B002D08C9801D0B9
:102880008C88120003B002D08C9A01D08C8A12007E
:1028900003B002D08C9C01D08C8C120003B002D00B
:1028A0008C9E01D08C8E120003B002D08A9001D091
:1028B0008A80120003B002D08A9201D08A8212006C
:1028C00003B002D08A9401D08A84120003B002D0EF
:1028D0008A9601D08A86120003B002D08A9801D06D
:1028E0008A88120003B002D08A9A01D08A8A120024
:1028F00003B002D08A9C01D08A8C120003B002D0AF
:102900008A9E01D08A8E12000550020AD8B42AD7B6
:10291000010AD8B42DD7070AD8B430D7010AD8B4E1
:1029200033D7030AD8B436D7010AD8B439D70F0A37
:10293000D8B43CD7010AD8B43FD7030AD8B442D799
:10294000070AD8B445D7030AD8B448D7010AD8B47F
:102950004BD71F0AD8B44ED7010AD8B451D7030AAF
:10296000D8B454D7010AD8B457D7070AD8B45AD71D
:10297000010AD8B45DD7030AD8B460D7010AD8B425
:1029800063D70F0AD8B466D7010AD8B469D7030A47
:10299000D8B46CD7010AD8B46FD7070AD8B472D7A5
:1029A000010AD8B475D7030AD8B478D73F0AD8B487
:1029B0007BD7030AD8B47ED7010AD8B481D7070AD7
:1029C000D8B484D7010AD8B487D7030AD8B48AD731
:1029D000010AD8B48DD70F0AD8A412008FD70001EE
:1029E000B66F000E0001B96F000EB86FFF0E000148
:1029F000886F87691FEC17F000018751000188116B
:102A0000D8A445D0000E0001B96F000EB86F000EBB
:102A10000001B76F32D00001B751030DF35001012F
:102A20006725D96EF45001016821DA6E0001B651B4
:102A3000DE18D8A420D00001B751030D21EE67F0B5
:102A4000DECFA6F0DDCFA7F0F3500001A627F450AB
:102A50000001A723010E0001A625D96E000E00017A
:102A6000A721DA6EDECFB8F0DDCFB9F0B8C0A4F0A0
:102A7000B9C0A5F012000001B72B01016951000196
:102A8000B75DD8A0C8D70001A469A5691200240EBB
:102A90000101651909E1090E01016619D8A404D0E4
:102AA0000001A469A56912000001B6510001D8A473
:102AB00006D0000E0001A56F000EA46F1200BA0E22
:102AC000036E000E046E000E066E000E056EC40E40
:102AD000076E4FEC25F0BA0E0001806F000E00016A
:102AE000816FB60E0001826F000E0001836F00013E
:102AF00082518311D8A4200E846F000E0001866FCE
:102B0000020E856FCBEC26F00009D8B459D0E5EC65
:102B100027F003C0AEF004C0AFF005C0B0F006C0AF
:102B2000B1F0960E0001B26F000EB36F000EB46FDD
:102B3000000EB56F3ED0AEC0A6F0AFC0A7F0B0C0DB
:102B4000A8F0B1C0A9F00001A61FA71FA81FA91FC8
:102B5000A62B000EA723A823A923E5EC27F000014C
:102B6000A65103240001AA6F0001A751042000010F
:102B7000AB6F0001A85105200001AC6F0001A95105
:102B800006200001AD6F0001AA510001B25D0001F5
:102B9000AB510001B3590001AC510001B45900011F
:102BA000AD510001B559D8B004D00001A469A569A0
:102BB0001200F5EC0AF0C40E6E18D8B405D0BBD7DD
:102BC0000001A469A5691200000E0001B96F000E92
:102BD000B86FB80E056E000E066E21EC28F0080ED8
:102BE0000324076E000E0420086E000E0A6E020E0B
:102BF000096E14EC24F00001B9AF06D0FF0E0001FD
:102C0000A56FFE0EA46F1200B8C0A4F0B9C0A5F065
:102C10001200F5EC0AF06E500001D56F240E010190
:102C2000651905E1090E01016619D8B41200C30E39
:102C30000001D519D8A403D0010E01016A6FFF0E5F
:102C40000001886F87691FEC17F0000187510001B0
:102C50008811D8A41200C40E0001D519D8B405D02B
:102C6000C60E0001D519D8A473D021EC28F003C0FA
:102C7000D3F004C0D4F0D3C0D9FFD4C0DAFF000130
:102C800000EE02F0D351E926D451EA22DECFEEFF66
:102C9000DDCFEDFFC40E0001D519D8A427D021EC5B
:102CA00028F0080E0324D96E000E0420DA6EDF50DF
:102CB000EFEC14F0A4C0CEF0A5C0CFF0D3C080F0EC
:102CC000D4C081F0CE0E0001826F000E0001836F30
:102CD000000182518311D8A4200E846F000E0001E0
:102CE000866F020E856FCBEC26F0120021EC28F0E7
:102CF000080E0324D96E000E0420DA6EDF500001A6
:102D0000C26F0001C2510001CC6FCD6BCCC087F007
:102D1000CDC088F01FEC17F087C0D0F088C0D1F08C
:102D2000D3C080F0D4C081F0D00E0001826F000EBD
:102D30000001836F000182518311D8A4200E846F9B
:102D4000000E0001866F020E856FCBEC26F012009C
:102D5000C50E0001D519D8A450D021EC28F003C02D
:102D6000C8F004C0C9F0000E0001D26F3FD0C8C047
:102D7000D9FFC9C0DAFF0001D251030D01EE67F09F
:102D8000EECFC4F0EDCFC5F0F3500001C427F450EE
:102D90000001C523010E0001C425E96E000E0001EB
:102DA000C521EA6EDE50EE181FE1DE50EE18D8A401
:102DB0001BD00001D251030D21EE67F0DECFC2F02F
:102DC000DDCFC3F0F3500001C227F4500001C3234C
:102DD000010E0001C225D96E000E0001C321DA6E7A
:102DE000000EDE6E000EDD6E0001D22B0101695176
:102DF0000001D25DD8B01200BAD7810E0001D519FA
:102E0000D8A4120021EC28F003C0CAF004C0CBF013
:102E1000CAC0D9FFCBC0DAFF01017651DE180EE13E
:102E200001017751DE18D8A4120076C110F077C1E5
:102E300011F00101745174EC1EF012001200000137
:102E4000872909E100018829D8A405D064C187F049
:102E50000001886B12000001875100018811D8A47D
:102E600006D0000E0001886F000E876F120001016E
:102E7000655101016611D8A441D0000E00019B6F7D
:102E800036D000019B51030D21EE67F0DECF89F0B3
:102E9000DDCF8AF0F35000018927F45000018A2326
:102EA000010E00018925D96E000E00018A21DA6E1B
:102EB00000018751DE1819E100018851DE18D8A4FD
:102EC00014D000019B51030DF35001016725D96E09
:102ED000F45001016821DA6EDF500001896F0001B2
:102EE00089510001876F886B120000019B2B010143
:102EF000695100019B5DD8B0A5D0C3D7240E010154
:102F0000651909E1090E01016619D8A404D0000170
:102F10008769886912009C0E036E000E046E000E15
:102F2000066E000E056EC60E076E4FEC25F09C0E69
:102F30000001806F000E0001816F870E0001826F1B
:102F4000000E0001836F000182518311D8A4200E6E
:102F5000846F000E0001866F020E856FCBEC26F0A9
:102F60000009D8B46FD0E5EC27F003C091F004C09D
:102F700092F005C093F006C094F0F40E0001956F36
:102F8000010E966F000E976F000E986F3ED091C0A5
:102F900089F092C08AF093C08BF094C08CF000014D
:102FA000891F8A1F8B1F8C1F892B000E8A238B235E
:102FB0008C23E5EC27F000018951032400018D6F7B
:102FC00000018A51042000018E6F00018B51052001
:102FD00000018F6F00018C5106200001906F0001ED
:102FE0008D510001955D00018E510001965900013F
:102FF0008F51000197590001905100019859D8B0A4
:1030000004D00001876988691200F5EC0AF0C60E49
:103010006E18D8A4BCD7990E056E000E066E21EC72
:1030200028F0080E0324076E000E0420086E000E20
:103030000A6E020E096E14EC24F099C087F09AC053
:1030400088F01200000187698869120009EC16F007
:10305000ECC0E0F0EDC0E1F0EEC0E2F0EFC0E3F074
:103060000001E01FE11FE21FE31FE02B000EE12340
:10307000E223E323E5EC27F00001E0510324000103
:10308000E46F0001E15104200001E56F0001E2510D
:1030900005200001E66F0001E35106200001E76F03
:1030A0000001E7510001E61108E1E80E0001E45DCE
:1030B000030E0001E559D8A08FD0E5EC27F003C03E
:1030C000ECF004C0EDF005C0EEF006C0EFF0EC0E41
:1030D0000001C26F000E0001C36F4D0E0001C46FEE
:1030E000000E0001C66F040EC56F000E0001C76F11
:1030F000D7EC1BF00009D8A41ED034EC1FF0000957
:10310000D8A412D0520E276E100E286EB6EC27F0FF
:10311000600E0001C76FEA0EC86F000EC96F000E87
:10312000CA6FF2EC18F058D02D0E276E100E286ED4
:10313000B6EC27F051D0630E216E100E226E7AECA1
:1031400021F0ECC01DF0EDC01EF0EEC01FF0EFC08E
:1031500020F087EC26F01DC027F01EC028F0B6EC4A
:1031600027F03AD0980E0F6E010E106EA00E116E61
:10317000010E126E000E146E080E136E3CEC1AF067
:10318000400E216E100E226E7AEC21F0A4C11DF0CB
:10319000A5C11EF0A6C11FF0A7C120F087EC26F044
:1031A0001DC021F01EC022F07AEC21F06D0E216EC0
:1031B000100E226E7AEC21F0A0C11DF0A1C11EF00C
:1031C000A2C11FF0A3C120F087EC26F01DC027F09C
:1031D0001EC028F0B6EC27F04FEC27F00009D8B459
:1031E0001200C0D7000E0001D86F000E0001D76F8B
:1031F000FEEC27F00009D8B406D0000E0001C86F1D
:10320000000EC76F120094EC22F02EEC28F0020999
:1032100011EC28F0000E0A6E0A0E096EE6EC24F09E
:10322000090E306E240E2F6EEEEC27F0090E010110
:10323000666F240E656FE5EC27F003C0D3F004C081
:10324000D4F005C0D5F006C0D6F070D0D3C0CBF016
:10325000D4C0CCF0D5C0CDF0D6C0CEF00001CB1F8D
:10326000CC1FCD1FCE1FCB2B000ECC23CD23CE23C6
:10327000E5EC27F00001CB5103240001CF6F0001E2
:10328000CC5104200001D06F0001CD510520000178
:10329000D16F0001CE5106200001D26F0001CF5145
:1032A0000001C75D0001D0510001C8590001D15192
:1032B0000001C9590001D2510001CA59D8B006D045
:1032C000000E0001C86F000EC76F1200010E000152
:1032D000D725036E046A000E0422010E0001D825D2
:1032E000056E066A000E062207EC27F0D89003361A
:1032F0000436320E0324096E000E04200A6EE6EC3A
:1033000024F00001D82B0001D851030B0001D86F25
:103310000001D72BD7C003F0046A000E066E0A0E18
:10332000056EF0EC21F003500001D76F0001D85179
:103330009EEC0DF00009D8B489D72EEC28F0FD0BD7
:1033400011EC28F065C1C7F066C1C8F01200246E08
:10335000000E236E040E236401D01DD023501C6E7A
:103360001D6A1C1E1D1E1C4A1D2A040E1C26000E52
:103370001D221C501A24D96E1D501B20DA6E2350BA
:10338000010D1E0EF324E96E000EF420EA6EDFCF6D
:10339000EFFF232ADFD72450D8A40DD07F0E056E6F
:1033A000010E066E1E0E076E000E086E84C109F037
:1033B0000A6A14EC24F0070E24601200020E246046
:1033C00016D01E0E116E000E126E84C113F0245022
:1033D000010D070EF324F66E100EF420F76EF86A56
:1033E000000EF8220800F5503BEC26F015D01E0E1A
:1033F000116E000E126E010E136E2450010D070E99
:10340000F324F66E100EF420F76EF86A000EF82220
:103410000800F5503BEC26F07DC115F02450010D5D
:10342000010EF324F66E100EF420F76EF86A000E0B
:10343000F8220800F55060EC27F02450010D0D0E25
:10344000F324F66E100EF420F76EF86A000EF822E0
:103450000800F5CF1CF0010E1D6E1C2A02D0D8907A
:103460001D361C2EFCD7020E70EC27F01D10156EB9
:10347000020E60EC27F01200000E1D6E000E1C6E96
:103480004FEC27F00009D8B412000FC005F010C0AF
:1034900006F0EE0E076E010E086E000E0A6E080EA4
:1034A000096E14EC24F01C0E056E000E066EF60E6E
:1034B000076E010E086E000E0A6E020E096E14EC05
:1034C00024F013501410D8B418D01C50135C1D50A5
:1034D0001458D8A004D01CC013F01DC014F011C0A3
:1034E00005F012C006F0F80E076E010E086E13C04C
:1034F00009F014C00AF014EC24F00A0E1C24156E16
:10350000000E1D20166E22EE88F01550DE5E16505D
:10351000DD5A000E1B6E1C500A0F030B1B6E1B5056
:10352000D8B40CD01B500008040F1B6E1B50010DAB
:1035300022EE88F0F350DE5EF450DD5AEE0E036E9C
:10354000010E046E1B50010D0A0E1C24156E000E98
:103550001D20166EB40E176E010E186E3A0E172649
:10356000000E18221550172616501822F350172453
:10357000056EF4501820066E1CC019F01DC01AF01C
:10358000191E1A1E194A1A2A9A0E1924076E000EBD
:103590001A20086E90EC1FF0120021EEAFF000EE42
:1035A00017F0040EDBCFEBFFE806FCE2170E1F6EF0
:1035B000000E206E010E1E6E03C01CF004C01DF034
:1035C00027D00550D8A404D003500410D8A416D096
:1035D000070E1C14086E000E1D14096EA80E082498
:1035E000D96E010E0920DA6E1E50010DF3501F2412
:1035F000E96EF4502020EA6EDFCFEFFFD8901D3245
:103600001C32D8901D321C32D8901D321C321E2A1A
:103610001C501D10D8A4D5D70550D8A404D00350F1
:103620000410D8A40DD00550010DA80EF324D96EB6
:10363000010EF420DA6E1FC0E9FF20C0EAFF17D0A8
:10364000FF0E086EFF0E096E1E500A6E0B6A0850C0
:103650000A2609500B22A80E0A24D96E010E0B204F
:10366000DA6E00EE01F01F50E9262050EA22DFCF8B
:10367000EFFF000E216E040E216401D012002150D4
:10368000086E096A081E091E084A092A040E08263F
:10369000000E0922170E0824D96E000E0920DA6EDA
:1036A0002150010DF3500624E96EF4500720EA6E14
:1036B000DFCFEFFF212ADFD712C018F013C019F0B7
:1036C00014C01AF015C01BF018C003F019C004F0A4
:1036D0001AC005F01BC006F016C007F017C008F0AE
:1036E000000E08BEFF0E096E0A6EFCEC20F003C04F
:1036F00018F004C019F005C01AF006C01BF0104AFB
:10370000112A185019101A101B10D8A4DDD710C098
:10371000D9FF11C0DAFF000EDF6E1006D8A0110627
:1037200012C003F013C004F014C005F015C006F079
:1037300016C007F017C008F0000E08BEFF0E096E95
:103740000A6EC9EC22F003501C6E12C003F013C0C5
:1037500004F014C005F015C006F016C007F017C03D
:1037600008F0000E08BEFF0E096E0A6EFCEC20F099
:1037700003C012F004C013F005C014F006C015F029
:10378000090E1C6402D0070E1C26300E1C2610C029
:10379000D9FF11C0DAFF1CC0DFFF1006D8A0110648
:1037A0001250131014101510D8B41200B9D7000E0F
:1037B0000001D16F000ED06FE5EC27F0B80E0324A6
:1037C0000001C86F0B0E04200001C96F000E052018
:1037D0000001CA6F000E06200001CB6F320E0001FF
:1037E000CC6F000ECD6F000ECE6F000ECF6F240E8B
:1037F0000101651907E1090E01016619D8A402D07B
:10380000000E12000001C7510001D8A42CD036D000
:10381000E5EC27F003500001C85D04500001C959D0
:1038200005500001CA590001CB51800A6B6E065049
:10383000800A6B58D8A008D0FE0E0001D01906E10E
:103840000001D129D8A402D0000E1200320E0001CE
:10385000CC27000ECD23CE23CF23CCC009F0CDC082
:103860000AF0E6EC24F00001C751EFEC14F0A4C01C
:10387000D0F0A5C0D1F00001D1BFCAD7D0C087F029
:10388000D1C088F0C2C089F0C3C08AF0C4C08BF038
:10389000C5C08CF0C6C08DF08EEC23F0120015C0B0
:1038A00028F016C029F0020E1524256E000E1620F1
:1038B000266E030E1524216E000E1620226EE9C11D
:1038C00023F0EAC124F0EBC127F025C0D9FF26C0C0
:1038D000DAFF010EDF6410D028C0D9FF29C0DAFF5B
:1038E000DECF23F0DDCF24F021C0D9FF22C0DAFFE4
:1038F000010EDF6E000E16D028C0D9FF29C0DAFFF6
:10390000DECF09F0DDCF0AF02EEC23F00009D8B4A9
:103910000BD028C0D9FF29C0DAFFDECF23F0DDCFDE
:1039200024F01DD0276E1DD028C0D9FF29C0DAFF92
:10393000DECF03F0DDCF04F09EEC26F00009D8B412
:1039400010D028C0D9FF29C0DAFFDECF03F0DDCFC9
:1039500004F005EC26F003C023F004C024F0050EAB
:10396000E1D728C0D9FF29C0DAFF23C0DEFF24C079
:10397000DDFF25C0D9FF26C0DAFF27C0DFFF120018
:10398000000E1F6E0101785101017919D8B406D0DB
:10399000000E036E0101785171EC12F001017851B3
:1039A00001017919D8B406D0000E036E01017951D6
:1039B00071EC12F0A9EC27F0000E8DEC27F0010E4F
:1039C000C3EC27F0000E0A6E050E096EE6EC24F03B
:1039D0000C0E156E000E60EC27F00F0E1A6E050E21
:1039E0002DEC27F0020E5FEC22F00009D8B403D0D2
:1039F000010E01017C6F060E70EC27F01F6E000EA9
:103A00005FEC22F0CFEC27F0000E156E1D0E60EC7F
:103A100027F0000E156E1C0E60EC27F0700E156E70
:103A2000070E60EC27F04C0EF4EC26F036EC28F094
:103A300042EC28F01AEC27F0000E70EC27F0FE0B99
:103A4000156E000E60EC27F0000E1E6E1F50D8B4ED
:103A500012001F28D8B41200010E1E6E12000C684E
:103A60000D68000E096E0AD0D8900C360D36D8902D
:103A70000C360D36D8900C360D36092A21EEE4F0BE
:103A8000DECF03F0DDCF04F00C5003160D5004160A
:103A900003500410D8A4E8D721EEE3F009C0DFFFFB
:103AA0000C1C036E0D1C046E03C0ECF104C0EDF1A0
:103AB00021EEECF0DECF03F0DDCF04F0D89004323D
:103AC0000332D89004320332D8900432033203C058
:103AD0000AF004C00BF021EEE4F0DECF03F0DDCFFE
:103AE00004F00A5003160B50041603C0E9F104C099
:103AF000EAF1E4C105F0E5C106F00AC007F00BC029
:103B000008F012D0D89006320532D890063205322D
:103B1000D89006320532D89008320732D890083251
:103B20000732D8900832073207500810D8A4EAD7D5
:103B300021EEEBF005C0DFFF12002D6E25C003F073
:103B400026C004F020EC26F00009D8B4120025C0ED
:103B5000E4F126C0E5F19BEC27F00009D8B412008F
:103B60002D28D8B403D02D50F4EC26F0000E1A6E98
:103B7000000E6CEC24F0E0EC26F0E4C103F0E5C1AB
:103B800004F0000E066E060E056E2EEC25F0D890A1
:103B90000334050F2C6E050E1A6E2C502DEC27F0F9
:103BA000190EE8CFB5F1000EE8CFB6F1000EE8CF60
:103BB000B7F1000EE8CFB8F1B5C103F0B6C104F01B
:103BC000000E066E030E056E07EC27F003C0B9F178
:103BD00004C0BAF12FEC1DF0060E2E6E13D025C0D6
:103BE00003F026C004F02EC005F0270E066E000E6E
:103BF000076ECDEC1AF0270E1A6E000E1B6E2E50BB
:103C0000A7EC19F02E062E28D8A4E9D740EC24F012
:103C1000120021EEE4F045C0E9FF46C0EAFFDECF26
:103C2000EEFFDDCFEDFFBB0E056E010E066E45C04B
:103C300007F046C008F0000E0A6E080E096E14EC7C
:103C400024F04A504B10D8B40ED0C30E056E010EAE
:103C5000066E47C007F048C008F04AC009F04BC0E4
:103C60000AF014EC24F0380E4C184D10D8B428D0BB
:103C7000030E506E20EE02F04550D9264650DA224F
:103C8000400EDE18DE10D8A402D0040E506E20EED6
:103C900002F04550D9264650DA224C50DE1806E193
:103CA0004D50DE18D8A402D0020E506E5050E66E71
:103CB0004CC0E6FF4DC0E6FF5DEC0FF06E50120009
:103CC000000EE66E20EE02F04550D9264650DA226C
:103CD000DECF4EF0DDCF4FF04EC0E6FF4FC0E6FF27
:103CE0005DEC0FF06E501200146E69C115F0000EFD
:103CF000166E12D01650030DF35001016725D96ED0
:103D0000F45001016821DA6E1450DE18D8A403D0F3
:103D100016C015F006D0162A01016951165CD8A00C
:103D2000E9D71550030DF35001016725D96EF45002
:103D300001016821DA6E14C0DFFF1550030D21EE7A
:103D400067F0DECF12F0DDCF13F0F3501226F450FF
:103D50001322010E1224D96E000E1320DA6E10C049
:103D6000DEFF11C0DDFF155001016919D8A4120052
:103D70000101692B67C10CF068C10DF0010E010152
:103D80006925036E046A000E0422000E066E030EFF
:103D9000056E07EC27F003C00EF004C00FF03EECF8
:103DA00027F00CC067F10DC068F112002050D8B4A4
:103DB00005D094EC22F0010E8DEC27F0E5EC27F015
:103DC00003C02DF004C02EF005C02FF006C030F067
:103DD00040D032EC28F0216E21A83BD0100E156E99
:103DE000070E60EC27F0000E8DEC27F0010E8DEC35
:103DF00027F02DC021F02EC022F02FC023F030C0BC
:103E000024F0211E221E231E241E212A000E2222FF
:103E100023222422E5EC27F021500324256E225092
:103E20000420266E23500520276E24500620286E7D
:103E30001C50255C1D5026581E5027581F502858CE
:103E4000D8A007D0000E8DEC27F042EC28F0000E31
:103E50001200170E70EC27F0216E21A8BAD7000EC1
:103E60008DEC27F0010E1200030E0001D66F000E3C
:103E70000001D76F3DD009EC16F017EC28F00009CF
:103E8000D8A405D02EEC28F06B6E6BA002D0010EEA
:103E90001200D80E036E000E046E000E066E000EA9
:103EA000056E820E076E4FEC25F0D80E0001806F74
:103EB000000E0001816F000E0001826F000E0001F4
:103EC000836F000E0001846F000E0001866F000EEC
:103ED000856FCBEC26F00001D76F0001D7510001B0
:103EE000D8A415D0000E0A6E670E096EE6EC24F019
:103EF0000001D6070001D629D8B409D0240E01014B
:103F00006519B9E1090E01016619D8A4B4D70001F9
:103F1000D7510001D8B494EC22F00001D75112001F
:103F200005C00DF006C00EF003C00BF004C00CF08D
:103F30000B500D5C0C500E58D8B02CD007500D24EF
:103F4000096E08500E200A6E09500B5C0A500C587E
:103F5000D8B020D007500D2608500E2207500B264F
:103F600008500C220D06D8A00E060DC0D9FF0EC0B9
:103F7000DAFF0B06D8A00C060BC0E9FF0CC0EAFF65
:103F8000DFCFEFFF0706D8A0080607500810D8B407
:103F90001200E8D707500810D8B412000DC0D9FF9E
:103FA0000EC0DAFF0BC0E9FF0CC0EAFFDFCFEFFF66
:103FB0000D4A0E2A0B4A0C2A0706D8A00806EAD793
:103FC000000E446E35C003F036C004F037C005F073
:103FD0003F0E066E000E076ECDEC1AF021EEDEF0FD
:103FE000DFA494EC22F03850D8B406D0000E1A6E3C
:103FF000000E6CEC24F005D0010E1A6E000E6CEC75
:1040000024F03F0E1A6E000E1B6EB5EC21F0BB0EB5
:10401000306E010E316EE6C132F0000E336E6FEC81
:1040200025F0446E21EEDEF0DFB412D0B5C11CF0F5
:10403000B6C11DF0B7C11EF0B8C11FF0000E206E52
:10404000D6EC1EF0446E000E1A6E000E6CEC24F0DE
:104050004450120011C021F012C022F001017D5124
:10406000135CD8A003D07DC123F002D013C023F08D
:10407000246A23C013F001017E51D8A40FD013503D
:10408000156E166A151E161E154A162A01017D5157
:104090001524256E000E1620266E04D0000E266E06
:1040A000000E256E25C020F03EEC28F01450F6ECF2
:1040B00027F01F6E09D021C0D9FF22C0DAFFDF50E0
:1040C000F6EC27F0214A222A13061328D8B404D08C
:1040D000F2D7000EF6EC27F020062028D8A4F9D756
:1040E0003AEC28F012006D6EC0EC1CF06DC073F15C
:1040F00001017351F4EC26F00001D9515FEC22F07C
:104100002AEC28F0FF0E0001886F87691FEC17F07A
:104110000001875100018811D8B410D0090E0101A7
:10412000666F240E656FDAC0C7F0DBC0C8F0DCC074
:10413000C9F0DDC0CAF0F2EC18F01200000E046EF7
:10414000060E036EE8EC23F003C067F104C068F1CB
:10415000000E0101696F48EC28F0000E0101666F46
:10416000000E656F65C12FF066C130F0EEEC27F0F0
:10417000120011C01EF012C01FF0135001017D5D2E
:10418000D8A07DC113F001017E51D8A40FD01350E7
:10419000146E156A141E151E144A152A01017D514C
:1041A0001424206E000E1520216E04D0000E216E06
:1041B000000E206E20C01DF03EEC28F0610EF6ECE3
:1041C00027F01C6E0AD0FF0EF6EC27F01EC0D9FFB8
:1041D0001FC0DAFFDF6E1E4A1F2A13061328D8B449
:1041E00004D0F1D7FF0EF6EC27F01D061D28D8A449
:1041F000F9D73AEC28F01200000E0B6E000E0C6E90
:10420000000E0D6E000E0E6E0750081009100A10F9
:10421000D8B42AD0010E0F6E06D0D89007360836D3
:1042200009360A360F2A0AAEF8D7D8900B360C3664
:104230000D360E360750035C0850045809500558D7
:104240000A500658D8A009D00750035E0850045AF7
:104250000950055A0A50065A0B80D8900A32093282
:10426000083207320F2EE1D70BC003F00CC004F068
:104270000DC005F00EC006F01200948C948E000E56
:10428000036E480E046EE80E056E010E066E10C039
:1042900014F011C015F012C016F013C017F0020E82
:1042A000D8901436153616361736E82EF9D714C0BE
:1042B00007F015C008F016C009F017C00AF0FCECB2
:1042C00020F0FF0E0324106EFF0E0420116EFF0E6F
:1042D0000520126EFF0E0620136E10C0AFFF11C036
:1042E000B0FFAC9CAC98AC84B886AB9CAB88AC8A75
:1042F000AB8E1200000E266E000E256E1BD02550D0
:104300002124236E26502220246E23C0F6FF24C0D1
:10431000F7FF000EF86E0F0EF76403D00800F5509B
:1043200005D0F6CFE9FFF7CFEAFFEF500BEC28F00E
:10433000254A262A25502124236E26502220246E29
:1043400023C0F6FF24C0F7FF000EF86E0F0EF764CF
:1043500003D00800F55005D0F6CFE9FFF7CFEAFF0C
:10436000EF500009D8B41200CAD7000E296E040E0F
:10437000296401D01DD029501C6E1D6A1C1E1D1EF3
:104380001C4A1D2A040E1C26000E1D221C501A2435
:10439000D96E1D501B20DA6E2950010D240EF32416
:1043A000E96E000EF420EA6EDFCFEFFF292ADFD797
:1043B000240E116E000E126E84C113F00A0E3BEC37
:1043C00026F0240E116E000E126E84C113F0100E32
:1043D0003BEC26F07DC115F0110E60EC27F01200C9
:1043E000000E086E04AE06D0036C041ED8B0042A7A
:1043F000010E086E06AE04D0056C061ED8B0062A63
:1044000005500610D8B418D0010E076E04D0D8900D
:1044100005360636072A06AEFAD70550035C065065
:104420000458D8A004D00550035E0650045AD89012
:1044300006320532072EF1D70850D8B404D0036CE9
:10444000041ED8B0042A03C003F004C004F0120014
:1044500001EEB4F021EE72F0EE6ADD50D950FCE1CD
:10446000DA50FAE101EE00F0980EEE6AE806FDE19E
:1044700000EEE8F0080EEE6AE806FDE17B6A7A6A73
:104480000A0EF66E500EF76E000EF86E01EEA8F0F2
:1044900020EE0CF00900F5CFEEFFDD50D950FAE127
:1044A0008C0EF66E500EF76E000EF86E0900F5CF0A
:1044B000F0F00900F5CFF1F0000155EF26F01B6E8A
:1044C000000E1A6E060E70EC27F01C6ED70E1C162E
:1044D000550E0101856F000E866F000E876F000E6E
:1044E000886F020E1B18D8A403D01C8A9B0E05D01F
:1044F0001B04D8A40AD01C86410E0101856F000E52
:10450000866F000E876F000E886F1CC015F0060EB8
:1045100060EC27F0060E70EC27F01C18D8A402D02F
:10452000010E1A6E1A501200000E8DEC27F00101D8
:1045300085518FEC25F01D0E70EC27F01A6E1AA233
:1045400006D0010185518FEC25F042EC28F0000ED9
:1045500070EC27F0FE0B156E000E60EC27F00D0ED0
:10456000F66E100EF76E000EF86E0800F5CF1AF01A
:10457000010E1B6E1A2A02D0D8901B361A2EFCD7B9
:10458000020E70EC27F01B10156E020E60EC27F087
:1045900012000750081009100A10D8B424D0010ED8
:1045A0000B6E06D0D8900736083609360A360B2A25
:1045B0000AAEF8D70750035C085004580950055854
:1045C0000A500658D8A008D00750035E0850045A75
:1045D0000950055A0A50065AD8900A320932083250
:1045E00007320B2EE7D703C003F004C004F005C068
:1045F00005F006C006F01200000120EE02F0805126
:10460000D9268151DA22400EDE6E000EDD6E21EEDB
:10461000E4F080C0E9FF81C0EAFFDECFEEFFDDCF2E
:10462000EDFF00018751C0EC24F003C06BF004C023
:104630006CF080C051F081C052F082C053F083C052
:1046400054F084C055F085C056F086C057F06BC05A
:1046500058F06CC059F0E8EC10F01200000E146E27
:1046600009C003F00AC004F09EEC26F00009D8B49B
:1046700025D021EEECF0DECF0BF0DDCF0CF00B1CE3
:104680000D6E0C1C0E6ED8900D360E36D8900D3671
:104690000E36D8900D360E360DC012F00EC013F047
:1046A000125009140B6E13500A140C6E0B500C10A0
:1046B000D8A402D0010E01D0000E146E14501200C6
:1046C000EE0EE8CF88F2010EE8CF89F2960EE8CF21
:1046D00094F2020EE8CF95F28A0EE8CFDBF1020EDB
:1046E000E8CFDCF1000EE8CFDFF1000EE8CFE0F11B
:1046F000000EE8CFE1F1000EE8CFE2F1000EE8CFC6
:10470000DEF1000EE8CFDDF1000EE8CFB4F1180EB7
:10471000E8CFE7F1000EE8CFE8F11200240E010126
:10472000651907E1090E01016619D8A402D0000E2F
:1047300012008E0E036E000E046E87C005F088C056
:1047400006F08BC007F04FEC25F08E0E0001806F55
:10475000000E0001816F89C082F08AC083F00001E1
:1047600082518311D8A4200E846F8CC085F08DC037
:1047700086F0CBEC26F01200230E036E240EAFEC75
:1047800025F060EC23F047EC28F0000E106EC20E0E
:10479000116E010E126E000E136E3DEC21F0010E33
:1047A00026EC28F0130E276E100E286EB6EC27F0BC
:1047B000000E0001D96F600E0001DA6FEA0EDB6FA8
:1047C000000EDC6F000EDD6F610E73EC20F0120046
:1047D000000E056E010E066E640E0526000E062202
:1047E0007AC007F07BC008F0071E081E074A082A97
:1047F00005500726065008220750035C0450800A23
:10480000096E0850800A0958D8A00DD07AC00AF065
:104810007BC00BF003507A2604507B220AC003F0C1
:104820000BC004F01200FFD707C00DF008C00EF057
:1048300005C00BF006C00CF01AD00DC0F6FF0EC07C
:10484000F7FF000EF86E0BC0D9FF0CC0DAFF0F0E99
:10485000F76403D00800F55005D0F6CFE9FFF7CF95
:10486000EAFFEF50DF6E0D4A0E2A0B4A0C2A0906AA
:10487000D8A00A060928E1E10A28D8B41200DDD739
:104880001AEC27F0000E70EC27F00109156E000EEF
:1048900060EC27F0700E156E070E60EC27F0010E2D
:1048A0008DEC27F001017F51D8B40AD07F0E116E34
:1048B000010E126E84C113F00A0E3BEC26F003D0F9
:1048C000000E0BEC25F01D0E70EC27F01F6E1FA2E2
:1048D000120042EC28F01200206E070E2060120039
:1048E000010E70EC27F01F6E1A50D8B40DD020C006
:1048F0001BF0010E1C6E1B2A02D0D8901C361B2EFA
:10490000FCD71C501F120DD020C01BF0010E1C6ED6
:104910001B2A02D0D8901C361B2EFCD71C50FF0A35
:104920001F161FC015F0010E60EC27F01200000EDC
:10493000096E000E086E05500610D8B41CD0010E8A
:10494000076E04D0D89005360636072A06AEFAD789
:10495000D890083609360550035C06500458D8A094
:1049600005D00550035E0650045A0880D8900632E0
:104970000532072EEDD708C003F009C004F012007D
:104980000B6E000E0D6E010E0C6E0B50D8B414D0D1
:104990000B04030DF3CF05F00CC006F00DC007F0BB
:1049A000052A03D0D89006360736052EFBD706C059
:1049B0000CF007C00DF005D0000E046E000E036E63
:1049C00012000CC003F00DC004F01200000E106EB7
:1049D000000E0F6E19D0000E126E000E116E200E1A
:1049E000115C030E1258D8B00DD000F000F000F0AA
:1049F00000F000F000F000F000F000F000F0114ACC
:104A0000122AEDD70F4A102A09500F5C0A5010588D
:104A1000D8B01200E0D71E6E1E50010D0D0EF3240B
:104A2000F66E100EF420F76EF86A000EF8220800F9
:104A3000F5CF1AF0010E1B6E1A2A02D0D8901B3641
:104A40001A2EFCD71B50FF0A1C6E020E70EC27F0CA
:104A50001C14156E020E60EC27F0120005500610B3
:104A6000D8B418D0010E076E04D0D890053606369B
:104A7000072A06AEFAD70550035C06500458D8A0A2
:104A800004D00550035E0650045AD8900632053211
:104A9000072EF1D703C003F004C004F0120020EE8B
:104AA00002F00350D9260450DA2205C0DEFF06C00A
:104AB000DDFF20EE04F00350D9260450DA22F0C0C6
:104AC000DEFFF1C0DDFF0001F04BF12B20EE06F020
:104AD0000350D9260450DA2207C0DFFF12000CD0A1
:104AE00032EC28F0346E34A807D0100E156E070E85
:104AF00060EC27F0000E120032EC28F0346E34B077
:104B0000EFD730C027F031C028F032C029F033C0D1
:104B10002AF0010E2B6ECDEC25F0010E12000A6E6C
:104B2000000E0C6E000E0B6E10D0000E0E6E000EFE
:104B30000D6E0E5008E1080E0D5CD8B004D000F0E8
:104B40000D4A0E2AF6D70B4A0C2A0A50036E046A45
:104B500003500B5C04500C58D8B01200E6D7046E1A
:104B600004C078F103C079F1000E01017C6F200EC2
:104B700001017D6F000E01017E6F050E0101846F42
:104B8000050E0101896F000E8A6F000E8B6F000EFB
:104B90008C6F000E01017F6F12002A50D8A404D040
:104BA000000E2F6EA00E03D0000E2F6EB00E2E6ED4
:104BB00027C011F028C012F029C013F02EC014F045
:104BC0002AEC20F02B50D8B41200010E8DEC27F007
:104BD0001200000E166E3EEC28F0600EF6EC27F088
:104BE000FF0EF6EC27F0166E3AEC28F0200E166455
:104BF0000AD036EC28F0000E0A6E020E096EE6ECC2
:104C000024F0000E120016501200070E21EEECF0F8
:104C1000DECF05F0DDCF06F0D89005360636D89009
:104C200005360636D890053606360510096E06504C
:104C30000A6E09500314036E0A500414046E120025
:104C4000010E086E12D00350070B076E050E0764A5
:104C500003D0000E086E0DD0D89004320332D890E5
:104C600004320332D8900432033203500410D8A423
:104C7000EAD708501200176E3EEC28F017501F0BB1
:104C80002009F6EC27F0166E09D011C0D9FF12C02A
:104C9000DAFFDF50F6EC27F0114A122A1306132828
:104CA000D8A4F3D73AEC28F01200000E0001E86F08
:104CB000000EE96F000EEA6F000EEB6FD59CD59ADF
:104CC000D586E00ED76EC00ED66EF294F28EF28AC2
:104CD000D58EBCEC23F026EC18F0FDD7170E70EC47
:104CE00027F0176E17B011D015501610D8B40BD08E
:104CF00032EC28F0196ED8901930070B15C0D9FF87
:104D000016C0DAFFDF6E010E1200000E12008E0ECA
:104D1000106E010E116E1DC012F01EC013F01FC0E8
:104D200014F020C015F0000E176E0A0E166E5CEC23
:104D30001BF08E0E1D6E010E1E6E120021EEE4F0B1
:104D400001EEECF0EECF07F0EDCF08F003500716C0
:104D500004500816DE50071806E1DE500818D8A4E3
:104D600002D0010E1200000E1200060017EE44F0F1
:104D7000F2A40CD0E00ED76EC00ED66E010E00016C
:104D8000E827000EE923EA23EB23F29402C0E2FFB6
:104D900001C0E1FF110080C051F081C052F082C01B
:104DA00053F083C054F084C055F085C056F086C0DF
:104DB00057F0000E596E380E586EE8EC10F01200E5
:104DC0001D0E70EC27F00409156E1D0E60EC27F027
:104DD0001C0E70EC27F03F09156E1C0E60EC27F0DE
:104DE000010E01017E6F12001C6E7D0E1D6E1D50A6
:104DF0001C5CD8A003D01DC01AF002D01CC01AF051
:104E00001B6A1AC015F0050E60EC27F01200035063
:104E10000502F3CF07F0F4CF08F003500602F35079
:104E2000082604500502F350082607C003F008C006
:104E300004F01200000E70EC27F01B6E1BB2120083
:104E40001B500209156E000E60EC27F0000E0A6E72
:104E5000050E096EE6EC24F012001D6E1AC01BF060
:104E60000F0E1B161DC01CF00F0E1C161C38F00B6D
:104E70001B10156E040E60EC27F012000CC003F03E
:104E80000DC004F01CEC28F00EC003F00FC004F0BD
:104E9000E8EC23F003C00CF004C00DF0120022EE89
:104EA00088F0DECF03F0DDCF04F00450010802E10A
:104EB0000350EE08D8B002D0010E1200000E12000E
:104EC000186E3EEC28F018501F0B2009F6EC27F066
:104ED000196E1550F6EC27F03AEC28F01950120034
:104EE000136E3EEC28F013501F0BF6EC27F0FF0E6C
:104EF000F6EC27F0146E3AEC28F01450120022C0A1
:104F000011F023C012F024C013F0B9EC20F0700EA1
:104F1000156E070E60EC27F01200076E0101785144
:104F200001017919D8B4120007C003F001017851CA
:104F3000B0EC13F01200000E046E01017829D8B411
:104F400006D001017929D8B402D0010E046E0450B4
:104F5000120094889496949AC69AC78CC698C79E55
:104F6000C650F00B0109C66EC68A120027C021F098
:104F700028C022F07AEC21F0720E216E100E226E03
:104F80007AEC21F01200106E10C003F0010179518B
:104F9000B0EC13F0010189518FEC25F012003EECCA
:104FA00028F0500EF6EC27F0730EF6EC27F03AECF2
:104FB00028F01200136E3EEC28F01350F6EC27F0A8
:104FC000146E3AEC28F014501200E8C003F0E9C067
:104FD00004F0EAC005F0EBC006F012002FC025F087
:104FE00030C026F0FF0E9DEC1DF01200046EC7903D
:104FF00004C0C9FFC7A0FED7C9501200000E156E2D
:10500000000E166E6EEC26F01200C33C33CE3EE36B
:10501000ECCCCCCCCCCC036E03C0ADFFACB2120058
:10502000FDD7036E21EEDEF003C0DFFF1200170E86
:1050300070EC27F0020B120003C07AF004C07BF082
:105040001200BB0E036E010E046E1200036E03C04D
:1050500064F11200010EE8CFDDF1120021EEDEF066
:10506000DF501200FF0EDAEC27F01200E20EDAEC4D
:1050700027F01200010EC3EC27F01200000EC3EC63
:1050800027F01200E10EDAEC27F012000100120006
:0250900012000C
:020000040020DA
:08000000FFFFFFFFFFFFFFFF00
:020000040030CA
:0E000000FF06181EFF8180FF0FC00FE00F40AB
:00000001FF
